:020000041A00E0
:10000000008000107D0C001A7901001A7B01001A93
:100010007D01001A7F01001A8101001A126CFF5342
:10002000000000000000000000000000713E001A07
:100030008501001A00000000113F001A753F001AE8
:10004000E940001ABB01001ABB01001A00000000C1
:10005000BB01001ABB01001ABB01001ABB01001A48
:100060003961001ABB01001ABB01001ABB01001A5A
:10007000E55D001A255E001A655E001AA95E001A89
:10008000BB01001ABB01001ABB01001ABB01001A18
:10009000BB01001ABB01001ABB01001ABB01001A08
:1000A000BD01001ABB01001A555D001A5F5D001A00
:1000B000BB01001A450C001ABB01001ABB01001A53
:1000C000BB01001ABB01001ABB01001ABB01001AD8
:1000D000BB01001ABB01001ABB01001ABB01001AC8
:1000E000BB01001ABB01001ABB01001ABB01001AB8
:1000F00000000000BB01001ABB01001ABB01001A7E
:1001000000000000BB01001ABB01001ABB01001A6D
:10011000BB01001A88EC001A000000103C0A000025
:1001200088EC001A000008100000000088EC001A9B
:10013000000000200000000088EC001A0080002071
:100140000000000088EC001A00C000200000000041
:10015000400A0010243300000000081000000000D6
:1001600000000020000000000080002000000000CF
:1001700000C0002000000000FEE7FEE7FEE7FEE70B
:10018000FEE7FEE7FEE7FEE7FEE7002393420AD222
:1001900010B450F8044B41F8044B04339342F8D3A5
:1001A0005DF8044B7047704700238B4204D2002255
:1001B00040F8042B0433F8E77047FEE708B5002049
:1001C00005F036FD08BDFFFFFFFFFFFFFFFFFFFF4C
:1001D000FFFFFFFFFFFFFFFFFFFFFFFFFFFFFFFF2F
:1001E000FFFFFFFFFFFFFFFFFFFFFFFFFFFFFFFF1F
:1001F000FFFFFFFFFFFFFFFFFFFFFFFFFFFFFFFF0F
:10020000FFFFFFFFFFFFFFFFFFFFFFFFFFFFFFFFFE
:10021000FFFFFFFFFFFFFFFFFFFFFFFFFFFFFFFFEE
:10022000FFFFFFFFFFFFFFFFFFFFFFFFFFFFFFFFDE
:10023000FFFFFFFFFFFFFFFFFFFFFFFFFFFFFFFFCE
:10024000FFFFFFFFFFFFFFFFFFFFFFFFFFFFFFFFBE
:10025000FFFFFFFFFFFFFFFFFFFFFFFFFFFFFFFFAE
:10026000FFFFFFFFFFFFFFFFFFFFFFFFFFFFFFFF9E
:10027000FFFFFFFFFFFFFFFFFFFFFFFFFFFFFFFF8E
:10028000FFFFFFFFFFFFFFFFFFFFFFFFFFFFFFFF7E
:10029000FFFFFFFFFFFFFFFFFFFFFFFFFFFFFFFF6E
:1002A000FFFFFFFFFFFFFFFFFFFFFFFFFFFFFFFF5E
:1002B000FFFFFFFFFFFFFFFFFFFFFFFFFFFFFFFF4E
:1002C000FFFFFFFFFFFFFFFFFFFFFFFFFFFFFFFF3E
:1002D000FFFFFFFFFFFFFFFFFFFFFFFFFFFFFFFF2E
:1002E000FFFFFFFFFFFFFFFFFFFFFFFFFFFFFFFF1E
:1002F000FFFFFFFFFFFFFFFFFFFFFFFFFFFFFFFF0E
:1003000000B5C1B002460549684607F0C3FC69461E
:10031000032005F014FD41B05DF804FBC0D8001ABD
:1003200000B5C1B002460549684607F0B3FC69460E
:10033000032005F004FD41B05DF804FBD4D8001A99
:1003400008B50249032005F0FAFC08BDCCD8001A14
:1003500008B504F0B7FB194B1B7898420FD004F096
:10036000B1FB164B1870062809D8DFE800F0040925
:100370000E13181D22001249032005F0E0FC08BDF1
:100380001049032005F0DBFCF9E70F49032005F0D5
:10039000D6FCF4E70D49032005F0D1FCEFE70C494A
:1003A000032005F0CCFCEAE70A49032005F0C7FC6E
:1003B000E5E70949032005F0C2FCE0E70000001072
:1003C000D0D9001AF8D9001A18DA001A3CDA001A43
:1003D0005CDA001A88DA001AB0DA001A08B504F0FC
:1003E00019FB08BD00B583B000230193036001AB86
:1003F0000A460146074802F0F4FD18B9019803B017
:100400005DF804FBFFF77CFF0121292005F05EFE6B
:10041000FEE700BF400A001008B5024802F075FF71
:1004200008BD00BF400A001000B591B004F054FBB5
:1004300002460C49684607F02DFC0B48FFF770FF99
:1004400001226946094802F075FC30B1FFF758FFF8
:100450000121282005F03AFEFEE7FFF771FF11B0F9
:100460005DF804FBDCDA001AF4DA001A400A001026
:1004700000B5C1B0002005F077FC0A20002105F08E
:100480009BFC0021274805F0A1FC274807F0FAFB58
:100490002649032005F053FC04F076FA024624496D
:1004A000684607F0F7FB6946032005F048FC04F0B6
:1004B00071FA02461F49684607F0ECFB69460320C3
:1004C00005F03DFC1C4804F0E1FA40B91B4903204B
:1004D00005F035FC0121282005F0F8FDFEE718495C
:1004E000032005F02CFC04F0F7FA0146032005F088
:1004F00026FC1449032005F022FC01212B2005F0E5
:10050000E5FD1149032005F01AFCFFF721FF0F4B11
:100510001B78052BF9D101212C2005F0D7FD41B026
:100520005DF804FBDD03001AE8D8001AF0D8001AC1
:1005300018D9001A38D9001AB432001058D9001A44
:100540007CD9001AA0D9001AA8D9001A00000010FE
:1005500030B5C5B00421B948FFF744FF042840F086
:100560001281B64AB64904A807F094FB04A90320F7
:1005700005F0E5FB0421B348FFF734FF042840F001
:100580000881B04B19785A7841EA02219A7841EAF9
:100590000241DB7841EA0361A84C61608A0AAA48FB
:1005A00007F00EFB042104F10800FFF71BFF0428ED
:1005B00040F0F580A54C2146A54807F001FB042139
:1005C0006018FFF70FFF042840F0EF80A149A24810
:1005D00007F0F6FA04219B48FFF704FF042840F0D7
:1005E000EA80984B19785A7841EA02219A7841EAD0
:1005F0000241DB7841EA0361904B1961974807F0AB
:10060000DFFA02219648FFF7EDFE022840F0D9807C
:10061000934A1378527843EA0223884A53610022AE
:1006200001920292ADF80C20012B00F0D080062B35
:1006300000F0D080072B00F0D38001AA194689482A
:1006400007F0BEFA02218648FFF7CCFE022840F0F0
:10065000D080834B19785B7841EA0321774B99610D
:10066000814807F0ADFA04217648FFF7BBFE042865
:1006700040F0C580734C2178637841EA0321A37868
:1006800041EA0341E37841EA03616C4BD961774861
:1006900007F096FA04212046FFF7A4FE042840F054
:1006A000B480684B19785A7841EA02219A7841EA75
:1006B0000241DB7841EA0361604B1962CA006C4871
:1006C00007F07EFA02216648FFF78CFE022840F010
:1006D000A280634C2178637841EA0321574B596229
:1006E000644807F06DFA02212046FFF77BFE0228DE
:1006F00040F097805A4B19785B7841EA03214F4CC0
:10070000A1625D4807F05CFA042104F12C00FFF7B8
:1007100069FE042840F08B805849594807F050FA88
:1007200004214848FFF75EFE0446042840F0D280CA
:10073000444B19785A7841EA02219A7841EA0241F9
:10074000DB7841EA03613D4D29634E4807F038FAF2
:10075000296BC900AA69AB6A03FB02F3B1FBF3F191
:10076000494B1960494807F02BFAAB69A96A01FBAC
:1007700003F1C1F3CF01464B1980464807F020FA38
:10078000204645B030BD04220146434807F018FA20
:10079000E7E604220146414807F012FAF1E6042296
:1007A00001463F4807F00CFA04E7042201463D48A1
:1007B00007F006FA0AE7042201463B4807F000FA70
:1007C0000FE702220146394807F0FAF920E7384AD4
:1007D000019232E7374903C90190ADF808102CE7C0
:1007E000354903C90190ADF80810090C8DF80A10BD
:1007F00023E702220146314807F0E2F929E7042203
:1008000001462F4807F0DCF934E7042201462D4861
:1008100007F0D6F945E7022201462B4807F0D0F948
:1008200057E702220146294807F0CAF962E7042285
:100830000146274807F0C4F96EE700BFF434001002
:1008400050DB001AF034001074DB001AFC34001086
:10085000ACDB001A00350010E4DB001A18DC001ACB
:100860003435001068DC001AA0DC001AD0DC001A55
:1008700000DD001A40DD001A7CDD001A2035001072
:10088000B8DD001AE8DD001A940C00100CDE001A26
:10089000980C001028DE001A38DB001A5CDB001A06
:1008A0009CDB001AC8DB001A00DC001A3CDC001AD2
:1008B00050434D0058DC001A60DC001A88DC001A36
:1008C000B8DC001AECDC001A28DD001A60DD001A22
:1008D0009CDD001A04220146014807F071F927E760
:1008E000D4DD001A08B5044B00221A60FFF7C0FDE2
:1008F000FFF79AFD08BD00BF900C001008B5034833
:1009000007F0C0F9FFF788FD08BD00BF4CDE001AF4
:10091000F0B583B007460E4600242546B44235D2D2
:100920001C4B1A681C4B1B689A4228DA04210DEBF9
:100930000100FFF757FD042815D1164A136801334B
:1009400013609DF806309DF8072043EA02239DF8C6
:10095000042043EA02439DF8052043EA026347F876
:1009600025300134D9E701460C4807F029F9012167
:100970002A2005F0ABFBFFF7C1FF002007E0084885
:1009800007F080F9FFF7BAFF002000E0012003B074
:10099000F0BD00BF900C0010940C001004DB001A96
:1009A00024DB001A10B582B01A4B97221A605A60E5
:1009B000C3F8CC204AF64443009302238DF8043058
:1009C00010238DF80530144807F05CF9134C2046CD
:1009D00005F0B0F86946204605F0B1F8012813D1BA
:1009E000226822F400422260226842F0180222604B
:1009F000226822F400422260226822F4004222F09F
:100A00001802226002B010BD0146054807F0D8F870
:100A1000F8E700BF0060084058DE001A00300A40C6
:100A200064DE001A10B582B002EB4202C2EB021281
:100A30005400A2B2059C01949DF81040009402F06D
:100A40006BFF08B102B010BD0121282005F03EFB6C
:100A5000FEE7FFFF00B583B0134807F013F905F078
:100A600079FBFFF79FFFFFF73DFFFFF771FD0025C3
:100A70000195012400942B4622460C490C48FFF7AF
:100A8000D1FF019500942B4622460A490A48FFF7F8
:100A9000C9FF02F073FF4FF0A00383F31188BFF387
:100AA0006F8FBFF34F8FFEE794DE001AA0DE001AAF
:100AB0009D0B001AB0DE001ADD0A001A08B50648C0
:100AC00007F0E0F84FF0A00383F31188BFF36F8FB6
:100AD000BFF34F8FFEE700BFC0DE001A08B5032248
:100AE0000021012002F028FD224B1860B8B94FF018
:100AF000A00383F31188BFF36F8FBFF34F8FFEE71F
:100B00005A1C1D4951F823101C4B9960D3B21B4A43
:100B1000126912F4002FF3D0194B01221A60194BFD
:100B20001B68012BFBD1174B00221A60144B1B686A
:100B300023B9154807F0A6F80023E8E7134807F0A3
:100B4000A1F8134B1B681BB1124807F09BF8E6E7AE
:100B500000230A4A126912F4002F07D15A1C0E49C9
:100B600051F82310054B9960D3B2F2E7084B0122EC
:100B70001A60D4E7303500103439001000300A40D4
:100B8000283500102C350010E4DE001AF4DE001ABF
:100B9000343D001004DF001A3435001008B54FF45E
:100BA00080712148FFF7B4FE0023204A1360012121
:100BB0001F4A11601F4A136004221F4804F0F9FF06
:100BC0001E4B4FF00052C3F88020BFF34F8FBFF38E
:100BD0006F8F602183F81D131A6010E04FF480714D
:100BE0001148FFF795FE114B00221A60134B4FF08E
:100BF00000521A6007E04FF4FA7003F00FF80B4B45
:100C00001B68012BEAD00A4B1B68012BF3D14FF470
:100C100080710B48FFF77CFE054B00221A60074BE2
:100C20004FF000521A60E6E7343900102835001002
:100C3000343D00102C35001000300A4000E100E087
:100C40003435001008B5094B4FF00052C3F880212D
:100C5000C3F88020BFF34F8FBFF36F8F044807F0B6
:100C600011F8044B01221A6008BD00BF00E100E04A
:100C7000D4DE001A2C3500107047FFFF10B572B695
:100C8000194B1A4A1A600433194A1A60002305E006
:100C9000184A4FF0FF3142F823100133072BF7D9E0
:100CA00062B6154B07E003F10C049A68596818689E
:100CB000FFF76BFA2346114A9342F4D306E01C4631
:100CC000596854F8080BFFF76FFA23460C4A934211
:100CD000F5D304F083FF06F099FBFFF7CDFFFFF794
:100CE000B9FE30BFFDE700BF003105400010DF1046
:100CF000FFF7DF0180E200E01401001A5001001A42
:100D00007801001A70477047092303604FF0FF30E5
:100D10007047582303604FF0FF307047022904D911
:100D2000092303604FF0FF307047012070475823BC
:100D300003604FF0FF30704702291FD82DE9F041C2
:100D40001D46174606460024AC4211D204F031F885
:100D5000B0F1FF3FF8D004F1010838550D2803D059
:100D60000A2801D04446EFE704F023F8404603E0A8
:100D7000132333604FF0FF30BDE8F081132303608D
:100D80004FF0FF30704702290CD870B51D4616464B
:100D90000024AC4204D2305D04F006F80134F8E7D8
:100DA000284670BD132303604FF0FF307047FFFFEC
:100DB000054B1B6823B1044B186801441960704748
:100DC000014B024A1A60F6E79C0C0010643D0010CB
:100DD0004278007840EA02207047C278837843EA7C
:100DE0000222437843EA0223007840EA0320704756
:100DF00030B4C279847944EA0221447944EA012179
:100E00000B0E047944EA01211B0243EA1163C47802
:100E100044EA01211B0243EA1163847844EA012178
:100E20001B0243EA1163447844EA01211B0204785F
:100E300044EA012043EA116130BC70470170090A9D
:100E4000417070470170C1F307234370C1F307433A
:100E50008370090EC17070470270C2F307214170A0
:100E6000C2F307418170120EC2700371C3F30722EF
:100E70004271C3F3074282711B0EC3717047134660
:100E80002AB111F8012B00F8012B013BF9D1704771
:100E900000F8011B013AFBD1704710B410F8013B78
:100EA00011F8014B1B1B013A01D0002BF6D018465C
:100EB0005DF8044B704703781BB18B4201D00130C1
:100EC000F9E71846704700207047FFFF30B4054629
:100ED000036813F8012B104612F0800F02D12B602B
:100EE00030BC704702F0E001C0290BD002F0F001E5
:100EF000E02934D002F0F801F02936D102F00700E1
:100F0000032102E002F01F0001211A4612F8013B02
:100F100003F0C004802C2BD103F03F0343EA801080
:100F200013460139F1D17F2825D9A0F55843B3F5EF
:100F3000006F23D3B0F5881F23D2B0F5803F12D3C2
:100F4000A0F58033104901EA8311C0F3090341EA97
:100F5000030040F0584040F45C401346BFE702F005
:100F60000F000221D1E71346B9E74FF0FF30B7E792
:100F70004FF0FF30B4E74FF0FF30B1E74FF0FF30F4
:100F8000AEE74FF0FF30ABE70000FF030239C36963
:100F9000023B8B4204D9036B408901FB0030704750
:100FA0000020704770B506460D4601F11A00FFF7A4
:100FB0000FFF3378032B00D070BD044605F11400F9
:100FC000FFF706FF44EA0040F6E770B506460C4618
:100FD000154691B204F11A00FFF730FF3378032B66
:100FE00000D070BD290C04F11400FFF727FFF8E7CB
:100FF0002DE9F04180460F4601F11A00FFF7E8FEA7
:1010000050BB3D7825F04005013D05EB450305EB60
:1010100083050126002404E04FF6FF73984220D197
:1010200001340C2C0DD8124B185D3844FFF7D0FE5C
:10103000002EF1D0FE2D12D828F8150006460135F5
:10104000EEE73B7813F0400F0DD0FE2D0DD80023B6
:1010500028F81530012000E00020BDE8F0810020D4
:10106000FBE70020F9E70120F7E70020F5E700BFE4
:10107000ACDF001A2DE9F84380460F4691464B73CA
:101080000F23CB7200240C73214607F11A00FFF7DF
:10109000D5FE09F1FF3606EB460306EB830625462F
:1010A00002E001340C2C11D84FF6FF739D4202D0A0
:1010B00038F8165001360C4B185D29463844FFF7B6
:1010C000BDFE002DEDD14FF6FF75EAE74FF6FF7339
:1010D0009D4202D038F816300BB949F0400987F824
:1010E0000090BDE8F88300BFACDF001AF0B583B014
:1010F000064615461C460B22FFF7C1FE052C11D8EB
:1011000007271FE001320F2A0CD803F0010101EB81
:1011100044045B0814F4803FF4D084F4883484F0F1
:101120002104EFE72B88002BEAD002350022EAE702
:101130007D1E02AA3A4402F8083C23090F2C0AD962
:101140002F461C4604F00F0202F13003392BEFD971
:1011500002F13703ECE77E2202AB2B4403F8082CA4
:10116000002400E00134AC4211D2305D20280ED0C2
:10117000FFF7A9FE0028F5D0BB1EA34207D001341B
:10118000F0E72022631C3255072B08D81C46072D98
:10119000F7D802AB2B4413F8082C0135F2E703B063
:1011A000F0BD0B210022D30143EA520310F8012BBA
:1011B00052FA83F3DAB20139F5D11046704730B4F0
:1011C00005464178013149010020034607E0420805
:1011D00002EBC032EC5C14FA82F290B201338B4223
:1011E00003D2022BF3D10133F8E730BC704738B596
:1011F00005460C4600693430FFF7EFFDA060286912
:101200003830FFF7F5FDC4E904012B6993F821306C
:1012100003F00203E3710023E36138BDF0B4076813
:10122000002F4ED039460B4613F8012B1F2A02D946
:1012300019463A2AF7D13A2A04D04FF0000C6046FA
:10124000F0BC704797F800C0ACF13002D2B2092A66
:1012500008D8BA1C9A4202D04FF0000C04E0ACF15E
:10126000300C26E04FF0000C174A52F82C103D4687
:1012700003E0B2B13546944213D111F8012B2E464A
:1012800016F8014BA2F16105EDB2192D01D8203AF3
:10129000D2B2A4F16105EDB2192DEAD8203CE4B236
:1012A000E7E70AB9B34204D00CF1010CBCF1010F1D
:1012B000DADDBCF1010F02DD4FF0FF3CBFE7036058
:1012C000BDE74FF0FF3CBAE7BCDF001A38B50D466A
:1012D000A8B104460368ABB11A78AAB18188DA884C
:1012E000914203D0092000232B6038BD587803F0C9
:1012F00095FB10F0010F0AD123680020F4E70920C4
:101300000023F1E70920EFE709200023ECE709209B
:101310000023E9E738B5C3780BB9002038BD04468F
:1013200000F138050123426B2946407803F094FB15
:10133000A0B90023E370616BA36ACB1A226A9342BF
:101340000ED2A378022B01D00020E7E701230A4444
:101350002946607803F080FB0020DFE70120DDE70D
:101360000020DBE770B5436B8B4202D1002630468C
:1013700070BD04460D46FFF7CDFF06460028F6D1A6
:1013800001232A4604F13801607803F055FB10B1BF
:1013900001264FF0FF356563E9E7FFFF10B504460E
:1013A0000023C3704FF0FF334363FFF7DBFF40BB05
:1013B00004F23620FFF70CFD4AF65523984222D15D
:1013C0000B22154904F13800FFF767FDE8B194F8E6
:1013D0003830E92B05D0EB2B03D0E82B01D00220CD
:1013E00012E003220D4904F16E00FFF756FD70B1C3
:1013F00005220B4904F18A00FFF74FFD48B1022096
:1014000002E0042000E0032010BD0120FCE70020E2
:10141000FAE70020F8E700BFC4DF001AD0DF001AA7
:10142000D4DF001A2DE9F04784B00D46174600239B
:101430000B60FFF7F3FE061EC0F2FE81BD4B53F8B2
:101440002640002C00F0FC812C6007F0FE0723787A
:1014500073B1607803F0E2FA10F0010F08D1002FA9
:1014600000F0F08110F0040F40F0EE810020E4E184
:1014700000232370B04B13F81600607003F0D5FA08
:1014800010F0010F40F0E2811FB110F0040F40F0A6
:10149000DF8100212046FFF781FF022800F09280C3
:1014A000012872D90027042800F0D481012800F215
:1014B000D38100F01D8104F14300FFF789FCB0F5F2
:1014C000007F40F0DF8104F14E00FFF781FC804691
:1014D00020B904F15C00FFF780FC8046C4F820804E
:1014E00094F84820A270531EDBB2012B00F2CC818D
:1014F00008FB02F594F845606681002E00F0C68175
:10150000731E1E4240F0C48104F14900FFF760FCE5
:101510008146208110F00F0F40F0BC8104F14B0098
:10152000FFF756FC824620B904F15800FFF755FC3E
:10153000824604F14600FFF74BFC8446002800F089
:10154000AB81431903EB19139A45C0F0A781AAEBAD
:101550000302B2FBF6F1B242C0F0A281774A914297
:1015600040F2E5804FF0000A4FF6F572914201D843
:101570004FF0020A40F6F572914240F2E380BAF170
:10158000000F40F0E1800D2057E16B4B03EB460369
:101590005B78CBB9002786E7002004AB03EB85031B
:1015A00043F8100C0135032D10D804F138002B013D
:1015B00003F5DF7318440379002BEDD00830FFF7F3
:1015C0000CFCEAE70025EEE70025ECE75A4B03EBBD
:1015D00046035D789DB1013D11E039462046FFF795
:1015E000DDFE554B03EB46035B78002B7FF45BAFCE
:1015F00001287FF658AF0135032D3FF654AF04ABF9
:1016000003EB850353F8107C002FE6D10320E8E7B5
:1016100001333F2B04D8E21892F83820002AF7D083
:101620003F2B40F21B8104F1A000FFF7D1FBB0F586
:10163000807F40F0158194F8A430092B40F012818E
:1016400004F18000FFF7D4FB10EB070841F100091B
:10165000B9F1010F08BFB8F1000F80F0058104F166
:101660008C00FFF7BAFB206294F8A630A370012B20
:1016700040F0FC8094F8A53001259D40ADB2658115
:10168000002D00F0F58004F19400FFF7A6FB8246E0
:101690002B4B984200F2EE80831CE361676204F1F9
:1016A0009000FFF79AFBC619266304F18800FFF744
:1016B00094FB3844A0620AFB05F20021921941F123
:1016C0000003994508BF9045C0F0D68004F198000A
:1016D000FFF783FB0146E0622046FFF757FC014617
:1016E0002046FFF73FFE002840F0C880002502E0BA
:1016F0000B238EE72035B5F5007F0DD2631993F8E3
:101700003830812BF6D104F1380305F11400184468
:10171000FFF763FB0228EDD1B5F5007F00F0B08044
:101720004FF0FF33A36163614FF0040A35E04FF0DF
:10173000030A19E7000F001014000010F5FFFF0F57
:10174000FDFFFF7F4FF0010A8E1CE66167620CEB24
:101750000702A2623B442363BAF1030F2BD0B9F115
:10176000000F00F0A3802A44E262BAF1020F32D0E7
:1017700006EB460306F0010606EB530606F2FF13DE
:10178000B8EB532FC0F094804FF0FF33A361636137
:1017900080232371BAF1030F1FD084F800A0454ABB
:1017A000138801339BB21380E380434BE360434BC8
:1017B0002361002041E004F16200FFF709FB0028EB
:1017C00070D1B9F1000F6FD104F16400FFF705FB90
:1017D000E062B600D2E77600D0E704F16800FFF7D8
:1017E000F7FA0128D9D1791C2046FFF7BBFD002864
:1017F000D3D10023237104F23620FFF7E9FA4AF629
:1018000055239842C9D104F13800FFF7E6FA2C4B72
:101810009842C2D104F50770FFF7DFFA294B9842CE
:10182000BBD104F50870FFF7D8FAA06104F5097080
:10183000FFF7D3FA6061B0E70B2004B0BDE8F08792
:101840000C20FAE70020F8E70A20F6E70320F4E787
:101850000A20F2E70120F0E70D20EEE70D20ECE78B
:101860000D20EAE70D20E8E70D20E6E70D20E4E78C
:101870000D20E2E70D20E0E70D20DEE70120DCE7A8
:101880000D20DAE70D20D8E70D20D6E70D20D4E7AC
:101890000D20D2E70D20D0E70D20CEE70D20CCE7BC
:1018A0000D20CAE70D20C8E70D20C6E70D20C4E7CC
:1018B0000D20C2E7080F00100C0F0010A00C001044
:1018C00052526141727241612DE9F84305469146D9
:1018D0008F1EC369023BBB4200D80027B8463C4676
:1018E0000026296B01EB14312846FFF73BFD40BB76
:1018F000C4F3C80004F0070201239340DBB209E0FF
:10190000A0460026A7421FD023B90130B0F5007FC2
:10191000E7D201232A1892F838201A405B00DBB284
:101920000134E9690239A14203D800244FF4007060
:101930002346002AE4D101364E45E3D108F10200E6
:1019400003E04FF0FF3000E00020BDE8F8832DE910
:10195000F8430646174698468C1E016B01EB14317E
:10196000C4F3C80504F00704012303FA04F4E4B245
:1019700001F101093046FFF7F5FC014610B10121E4
:101980001EE00124731993F83830234214BF01225A
:101990000022424513D07219634082F83830012387
:1019A000F370013F0CD09C4014F0FF04EAD11D44B9
:1019B0001C46B5F5007FE4D349460025D8E702214F
:1019C0000846BDE8F8832DE9F047012940F28280FE
:1019D00005460C461746C3698B427FD90378013B05
:1019E000032B7DD8DFE803F00240535301EB51088D
:1019F000816A01EB5821FFF7B5FC064600286AD141
:101A000005F1380A08F10109C8F3080814F00104C7
:101A10001FD01AF9083003F00F033A0102F47F6275
:101A20001343DBB20AF808300123EB70A96A01EB1B
:101A300059212846FFF796FC064600284BD1C9F3EA
:101A4000080944B1C7F307170AF809700123EB70BE
:101A500041E0FBB2E6E71AF9093023F00F03C7F3C0
:101A600003271F43FFB2EFE7816A01EB1421FFF761
:101A700079FC064678BB05F13800640004F4FF7475
:101A8000B9B22044FFF7DAF90123EB7023E0816A51
:101A900001EBD411FFF766FC0646E0B92B78042B66
:101AA0000CD027F0704705F13800A30003F4FE7353
:101AB0001844FFF792F900F07040074305F1380031
:101AC000A40004F4FE7439462044FFF7BBF9012357
:101AD000EB7000E002263046BDE8F0870226FAE708
:101AE0000226F8E770B504460D46164607E0324672
:101AF000FFF769FF034658B9E369013BE361E36916
:101B000033B12068EA1A511C012BF0D90232EFE7F9
:101B1000184670BDC379032B02D0002318467047C6
:101B200070B50646816884694CB14D1C2A46306800
:101B3000FFF749FF034620B9013C2946F4E700239B
:101B4000F371184670BDF8B50568012940F2998017
:101B5000EB698B4240F297800C462B78013B032BBC
:101B600000F29380DFE803F0022B3C4F01EB5106BB
:101B7000A96A01EB56212846FFF7F4FB10B14FF09C
:101B8000FF307FE0771CC6F308062E4496F83860D5
:101B9000A96A01EB57212846FFF7E4FB002876D11C
:101BA000C7F30800284490F8380046EA002014F0F3
:101BB000010F01D0000965E0C0F30B0062E0A96AE3
:101BC00001EB14212846FFF7CDFB002862D105F177
:101BD0003800640004F4FF742044FFF7F9F851E082
:101BE000A96A01EBD4112846FFF7BCFB002854D1A9
:101BF00005F13800A40004F4FE742044FFF7EDF86A
:101C000020F070403EE0D0E9046756EA070301D0B7
:101C1000836813B9C379002B42D18368E21A16F1A5
:101C2000FF3347F1FF315B0A43EAC1536989B3FBD4
:101C3000F1F3C179022908D003290BD0022934D04D
:101C4000C36963B16FF000401CE09A42F4D829D018
:101C5000601C17E083699342F0D9601C12E0A96A06
:101C600001EBD4112846FFF77DFB00BB05F13800DE
:101C7000A30003F4FE731844FFF7AFF820F0004010
:101C800000E00120F8BD0120FCE70120FAE74FF059
:101C9000FF30F7E74FF0FF30F4E74FF0FF30F1E7A8
:101CA0000120EFE76FF00040ECE70120EAE74FF09A
:101CB000FF30E7E72DE9F04106460D4607683B781F
:101CC000042B24D04FF40013AB4241D915F01F0F61
:101CD00040D13563B4682CB93B78022B02D9FC6A39
:101CE0000023F371B4B93B89B3EB551F34D9FB6AB8
:101CF000B3637463B36BABB303EB5523B363383790
:101D0000C5F308053D44F5630020BDE8F0814FF0C0
:101D10008053D9E7B7F80A804FEA482801E0A5EBDD
:101D2000080545450ED321463046FFF70CFF044613
:101D3000B0F1FF3F12D0012812D9FB698342EED8DF
:101D40000220E2E721463846FFF720F9B063D0E7EA
:101D50000220DAE70220D8E70220D6E70120D4E704
:101D60000220D2E70220D0E72DE9F8438046076839
:101D7000894631B97E69A6B1FB69B34212D8012602
:101D800010E0FFF7E0FE0546012840F2C680B0F102
:101D9000FF3F00F0C380FB69834200F2BF804E46E4
:101DA00000E00126BD69002D00F0B8803B78042BCF
:101DB00003D04E4555D0344695E001223146384691
:101DC000FFF782FD0546431E13F1030F00F2A680C4
:101DD00001231A4601463846FFF7B9FD034602289B
:101DE00000F09F80012800F09E80B9F1000F1ED105
:101DF000022288F8072098F80720022A00F0828043
:101E000009F10102AA4222D0D8F81C3013B90123EB
:101E1000C8F81C302A4649464046FFF763FE034691
:101E2000002871D10122C8F81C202C463EE098F809
:101E30000720022ADFD1721CAA42DCD0D8F8082081
:101E4000B21AC8F81820032288F80720D3E7D8F878
:101E50001C2022B10132C8F81C202C4626E00222A8
:101E6000F9E7741CFB69A34200D8022421464046CE
:101E7000FFF769FE0546012850D0B0F1FF3F4DD075
:101E800038B17B69012B96D9FA699A4293D91E46DB
:101E900091E7002C8FD04FF0FF3221463846FFF7F4
:101EA00092FD034610B9B9F1000F24D173BB7C61D8
:101EB000BA69FB69023B9A4201D8013ABA613B799F
:101EC00043F001033B71254628E021464046FFF7D9
:101ED0003AFE05460028DED001281FD0B0F1FF3FB2
:101EE0001CD0B44224D00134FB69A342EDD8012EAA
:101EF0001CD90224E9E7224649463846FFF763FD2C
:101F00000346D3E72C46D1E72C46CFE7012B01D07F
:101F1000012503E04FF0FF3500E001252846BDE82C
:101F2000F8830125FAE74FF0FF35F7E70025F5E7DD
:101F30000025F3E72DE9F8430468012940F2878082
:101F400007460E469146E3698B4240F2828072B1A9
:101F50002378042B02D1C379022B08D04FF0FF3233
:101F600049462046FFF72FFD0346002872D1B046B0
:101F700012E0002231462046FFF725FD0346C8B196
:101F800068E0731CAB4203D02378042B1ED0A84614
:101F9000E3692E46AB4225D931463846FFF7D3FDDB
:101FA0000546F8B1012858D0B0F1FF3F57D023784B
:101FB000042BDED1A269E369023B9A42E1D20132ED
:101FC000A261237943F001032371DAE7A6EB08024B
:101FD0000023013241462046FFF7B9FC0346C8BB47
:101FE000A846D5E72378042B01D0002332E0B9F1CD
:101FF000000F02D10023FB712CE0FB79C3B9BC6850
:102000004C450DD021463846FFF79DFD012828D9C3
:10201000B0F1FF3F27D0631C834201D11C46EFE79C
:102020004C4501D0002315E00223FB71002311E091
:10203000032B01D000230DE0BB684B4515D8BA69CE
:1020400013444B4513D30223FB71002302E0022308
:1020500000E002231846BDE8F8830223FAE70123D3
:10206000F8E70223F6E70123F4E70023F2E7002371
:10207000F0E7F8B505460C46FFF74CF908B101202A
:10208000F8BD21462846FEF781FF0746686305F143
:1020900038064FF4007200213046FEF7F9FE0024A6
:1020A00000E001346B89A34207D90123E2193146CC
:1020B000687802F0D1FC0028F3D06889001B18BFB3
:1020C0000120DDE72DE9F8430668056B836B002BE3
:1020D00056D020353278042A18D04FF40012AA4284
:1020E00050D988460446C5F308073FB901338363D6
:1020F000416B91B93389B3EB551F0AD9256306F1BA
:1021000038033B44E3630020BDE8F8834FF080527E
:10211000E5E7002383630420F6E77389013B13EAB4
:102120005523EBD1FFF70FFD814601282CD9B0F1E3
:10213000FF3F2BD0F369834216D8B8F1000F1BD0B4
:10214000616B2046FFF710FE814608B3012821D0BD
:10215000B0F1FF3F20D001463046FFF78AFFE8B9D3
:10216000E37943F00403E371C4F834904946304600
:10217000FEF70CFFA063C1E70023A3630420C3E7BD
:102180000420C1E70420BFE70220BDE70120BBE730
:102190000720B9E70220B7E70120B5E70120B3E740
:1021A0002DE9F041044600680769A16BFFF7DAF8F2
:1021B000054620B9E16B0B78852B03D00225284614
:1021C000BDE8F08120223846FEF759FE7E780136C0
:1021D0007601A6F16003B3F5007F59D800212046AF
:1021E000FFF770FF054604280ED00028E7D1A16B49
:1021F0002068FFF7B7F805460028E0D1E16B0B78BF
:10220000C02B03D00225DAE70225D8E72022B81830
:10221000FEF735FE97F823302C33204AA2FB032328
:10222000DB08B6EB431F35D34FF0400805E002252D
:10223000C5E708F1200846451CD900212046FFF7D4
:1022400041FF05460428F2D00028B8D1A16B2068D0
:10225000FFF788F805460028B1D1E16B0B78C12B58
:102260001AD1B8F5187FE4D2202207EB0800FEF758
:1022700006FEDEE7B8F5187FA1D83846FEF79FFFC7
:102280000446B81CFEF7A4FD844298D0022596E7C8
:10229000022594E7022592E7022590E7898888883D
:1022A00010B504460B6803600B6A836091F8243014
:1022B000C3714B6A23F0FF03002203614261C261D4
:1022C000896AC164FFF7F6FC034608B1184610BDE1
:1022D0002046FFF765FF0346F8E72DE9F84304467B
:1022E000884606684FF0FF094F46042508E0852B15
:1022F00028D000212046FFF7E5FE054600285BD1E7
:10230000A16B002958D03046FFF72CF8054600286D
:1023100052D1E16B0B78002B4DD03278042AE6D0F5
:10232000CA7A02F03F02A271E52B3ED02E2B3ED09E
:1023300022F02000082814BF0020012040450ED0C4
:10234000FF27D6E7236BE3642046FFF729FF054606
:1023500090BB33691B7903F03F03A3712CE00F2A74
:1023600019D113F0400F06D091F80D9003F0BF0380
:10237000226BE2641F46BB4201D0FF27B9E74B7BCB
:102380004B4501D0FF27B4E7F068FEF731FE80B17E
:10239000013FFFB2ADE727B90846FEF702FF484507
:1023A0000AD04FF0FF33E36406E0FF27A1E7FF27E1
:1023B0009FE7FF279DE704250DB10023A36328466F
:1023C000BDE8F883F8B504460F4606680021FFF71C
:1023D00071FC024630BB00250EE0E36B93F9003040
:1023E000DB43DB0FE3B10135BD421BD001212046A9
:1023F000FFF768FE0246A8B9A16B3046FEF7B2FFB0
:10240000024678B93378042BE7D0E36B1B78E52BD1
:1024100002D01BB90123E5E70123E3E70023E1E74D
:102420000025E3E7042A01D01046F8BD0722FBE7A8
:10243000F8B5044603681E693046FEF7C0FE014643
:10244000B01CFEF7FBFC77780137E16C2046FFF704
:1024500031FC0546B5B9A16B2068FEF783FF054640
:1024600080B920223146E06BFEF709FD2368012286
:10247000DA70013F06D0203600212046FFF722FE09
:102480000546E7E7022D28BF0225E8B2F8BDFFFFA9
:102490002DE9F04F85B081460F460B680393036822
:1024A000DD6800240EE086B21F2E24D92F2E22D004
:1024B0005C2E20D07F2E14D9FE2C00F2018125F84D
:1024C0001460013403A8FEF701FDB0F1FF3F00F0F6
:1024D000F580B0F5803FE6D3030C25F814300134C5
:1024E000E1E731467848FEF7E6FC0028E4D0062014
:1024F0008FE001330393039B1A782F2AF9D05C2ACB
:10250000F7D03B601F2E01D8042702E0002700E02F
:10251000013C44B104F10043013B35F81330202B5A
:10252000F6D02E2BF4D0002325F81430002C00F028
:10253000C9801E4635F81630202B01D10136F9E747
:102540000EB92E2B03D147F0030700E0013C34B154
:1025500004F10043013B35F813302E2BF6D10B224A
:10256000202109F14000FEF793FC4FF0080B0023F7
:1025700001939A4606F1010835F8166046B3202EFD
:1025800019D02E2E15D0019B5B4518D2444516D08C
:102590007F2E4ED8FF2E62D90BF1FF33019A934262
:1025A00057D901994B1CC6F30722494481F84020B2
:1025B0005AE04445E7D047F003074646DAE7BBF167
:1025C0000B0F29D0444501D047F00307444526D2DC
:1025D00099F84030E52B68D0BBF1080F69D00AF0BC
:1025E0000C030C2B03D00AF00303032B01D147F09B
:1025F000020717F0020F09D11AF0010F01D047F0BE
:1026000010071AF0040F01D047F0080789F84B7043
:10261000002005B0BDE8F08F47F00307D8E74FEA88
:102620008A0A5FFA8AFA26464FF00B0B08230193B9
:10263000A0E747F0020740F25231304600F07AFE40
:10264000064610F0800FA5D000F07F061F4B9E5D60
:10265000A0E747F003074646CDF804B08AE756B92D
:1026600047F00307019B5F265A1C01924B4483F8F5
:10267000406046467EE731461548FEF71CFC0028C0
:10268000EED1A6F141039BB2192B01D84AF0020A00
:10269000A6F161039BB2192B05D84AF0010A203E2E
:1026A000B6B2019BE0E7019BDEE7052389F84030E5
:1026B00092E74FEA8A0A5FFA8AFA90E70620A8E7CB
:1026C0000620A6E70620A4E7DCDF001A2CDF001AAC
:1026D000E8DF001A38B50546002435F8020B88B14A
:1026E00000F048FE80B2630803EBC434C3B213FAAF
:1026F00084F4A3B25C0804EBC334000A10FA84F437
:10270000A4B2EAE7204638BD2DE9F84307468846DB
:1027100040220021FEF7BCFB85233B70C02387F8D5
:10272000203001250026B146402417E029463819FB
:10273000FEF784FB023414F01F0F08D0002DF5D0F3
:1027400038F81650002DF1D00136F6B2EEE709F157
:102750000103DBB238F816203AB19946631CC12256
:102760003A550022FA540234E8E787F8236009F169
:10277000020987F801904046FFF7ACFF014607F1D8
:102780002400FEF75BFBBDE8F883FFFF2DE9F0476F
:102790008146884601F11A00FEF71AFBB8BB98F88B
:1027A000005005F03F05013D05EB450305EB8305B2
:1027B0000127002406E000202AE04FF6FF7398422C
:1027C00028D101340C2C17D8164B185D4044FEF765
:1027D000FFFA0646002FF0D0FE2DECD800F0CAFD1F
:1027E000074605F1010A39F8150000F0C3FD8742DC
:1027F000E1D137465546E4E798F8003013F0400F32
:102800000AD05FB139F8153053B9012000E000203B
:10281000BDE8F0870020FBE70120F9E70120F7E79A
:102820000020F5E7ACDF001A2DE9F84F04460768F1
:102830000021FFF73FFA0646002840F0AB803B78C6
:10284000042B06D04FF0FF33E3644FF0FF09C84676
:1028500046E0F868FFF73EFF834620E038694044D1
:10286000FEF7B6FA00F086FD8246FB6833F81900E1
:1028700000F080FD82450CD1013DEDB208F1020867
:1028800009F101092DB118F01F0FE7D108F1020875
:10289000E4E725B9FB6833F81930002B7AD0002122
:1028A0002046FFF71AFD0646002873D13D6905F161
:1028B0002400FEF78DFA5845F1D195F823504FF0DA
:1028C00000094FF04008DDE74FF0FF33E3644FF0BD
:1028D000FF0800212046FFF7F5FB0646002859D1E6
:1028E000A16B3846FEF73EFD0646002852D1E56B47
:1028F0002B78002B4DD0E97A01F03F02A271E52B35
:10290000E2D011F0080F01D00F2ADDD10F2A19D023
:10291000B8F1000F04D12846FEF743FC484539D0F2
:1029200094F84B3013F0010F06D10B2204F1400153
:102930002846FEF7B2FA68B34FF0FF33E3644FF076
:10294000FF08C6E794F84B2012F0400FC1D113F0F6
:10295000400F06D095F80D9003F0BF03226BE264A0
:102960009846434502D04FF0FF08B2E76B7B4B45DA
:1029700002D04FF0FF08ACE72946F868FFF706FFE2
:1029800020B108F1FF385FFA88F8A2E74FF0FF089E
:102990009FE704263046BDE8F88F30B583B0044683
:1029A0000191056801E001330193019B1A782F2AF8
:1029B000F9D05C2AF7D00022A260E2611B781F2BBD
:1029C0001FD8802384F84B3011462046FFF772F958
:1029D0000346184603B030BD0428FAD112F0040FA4
:1029E000F7D10523F5E7A3682362236923F0FF03EA
:1029F000E27913436362E36CA36221462846FEF743
:102A0000F6FB01A92046FFF743FD03460028E0D16D
:102A10002046FFF709FF94F84B2003460028DBD13E
:102A200012F0040FD5D1A37913F0100F0DD02B782D
:102A3000042BD8D005F13801236BC3F308031944E4
:102A40002846FEF7AFFAA060DBE70523C1E7FFFFEA
:102A50002DE9F04399B0056890F84B3013F0A00FC2
:102A600040F0ED800024EB6833F814300BB10134F2
:102A7000F9E706462B78042B11D000F140070C2211
:102A8000394615A8FEF7FBF99DF85F3013F0010FEA
:102A900079D0402386F84B304FF001085AE00E34CD
:102AA0006B4BA3FB0434E408A11CFFF78BFC8146AD
:102AB00000287ED1336B04F100640134A3EB44148D
:102AC000F464F37913F0040F13D023F00403F371CB
:102AD0003046FFF71FF808B181466AE04FF0FF3239
:102AE000716B3046FEF7FEFF002840F0AB80B36804
:102AF00023B9E9682869FFF707FE5AE031466846BE
:102B0000FFF7CEFB034608B1994652E069894902B6
:102B1000D6E90423571843F10008C6E90478286968
:102B20003A4643463830FEF797F92869D6E9042338
:102B30002830FEF791F9F3792A6943F0010382F80E
:102B400021306846FFF774FC03460028D1D0DBE74C
:102B500008F10108B8F1630F0BD84346EA6815A9DC
:102B60003846FEF7C3FA3046FFF75EFE814600287E
:102B7000EED0B8F1640F67D0B9F1040F19D19DF808
:102B80005F3086F84B309DF85F3013F0020F14D0A1
:102B90000C34304BA3FB0434A408013421463046E6
:102BA000FFF710FC814608B9013C08D1B9F1000FCC
:102BB0002BD0484619B0BDE8F0830124EEE7316B15
:102BC000A1EB44113046FFF775F881460028EDD19E
:102BD0003846FEF7E6FA8046B16B2846FEF7C2FBA0
:102BE00081460028E2D14346E2B2F16BE868FEF785
:102BF00041FA0123EB7000213046FFF763FA81466A
:102C00000028D3D1013CE7D1D0E7B16B2846FEF7CD
:102C1000A9FB81460028CCD120220021F06BFEF7D1
:102C200037F90B223946F06BFEF729F996F84B304D
:102C3000F26B03F0180313730123EB70B9E74FF045
:102C40000609B6E78146B4E74FF00709B1E700BFD0
:102C5000898888884FECC44E70B50446FEF75AFB4D
:102C6000054648B92378032B08D000221146607826
:102C700001F002FF00B10125284670BD2379012B28
:102C8000F3D104F138064FF4007200213046FEF70C
:102C9000FFF84AF6552104F23620FEF7CFF80F4927
:102CA0003046FEF7CFF80E4904F50770FEF7CAF874
:102CB000A16904F50870FEF7C5F8616904F50970AB
:102CC000FEF7C0F8626A0132626301233146607820
:102CD00001F0C2FE00232371C7E700BF52526141D9
:102CE0007272416110B584B0019000911446039155
:102CF00003A8FEF793FA002817DB0D4B53F820309A
:102D00000BB100221A70019B0BB100221A70084B04
:102D1000019A43F8202014B9002004B010BD00220D
:102D200001A96846FEF77EFBF7E70B20F5E700BF39
:102D3000000F00102DE9F04F99B00191002800F02C
:102D40004E810446164602F03F073A4603A901A801
:102D5000FEF768FB054630B10DB10023236028461D
:102D600019B0BDE8F08F039B0493019904A8FFF705
:102D700014FE054618B99DF95B30002B47DB16F0B1
:102D80001C0F00F08A80002D48D0042D41D047F060
:102D90000807002D40F0908017F0080F00F08C809D
:102DA00003980378042B43D0139E3146FEF7FAF8BC
:102DB000804601F011FE014606F10E00FEF742F8D2
:102DC000139B2022DA72002213990398FEF7FDF874
:102DD000002113981C30FEF735F8039B0122DA70AE
:102DE000B8F1000F68D0039B5E6B0022414604A837
:102DF000FFF7A0F8054600285ED131460398FEF79C
:102E0000B1FA054608F1FF33039A536154E00625F1
:102E1000B5E704A8FFF71CFE0546B8E79DF8163095
:102E200013F0110F47D116F0040FB2D0082543E07C
:102E3000206021460398FEF7DAF9039B18691E22E9
:102E400000210230FEF724F8039B18691A220021A2
:102E50002630FEF71DF8039B1A69202111711D69A8
:102E600001F0BAFD014605F10800FDF7EBFF039BF9
:102E70001B69012283F8212004A8FFF7D9FA05462F
:102E8000D0B9A168C1B100222046FFF753F805462A
:102E9000A368013B039A53610EE06DB99DF81630AB
:102EA00013F0100F4ED116F0020F05D013F0010FE2
:102EB00002D007250BE007254DB917F0080F01D008
:102EC00047F04007039B5B6BA364139BE364002DF7
:102ED0007FF442AF03980378042B35D0139E31461C
:102EE000FEF760F8A06006F11C00FDF776FF206198
:102EF00000236361039B2360DB88A38084F8307028
:102F0000002184F83110616400220023C4E90E23FB
:102F100004F1500A4FF400725046FDF7B9FF17F064
:102F2000200F3FF419AFD4E9046756EA07033FF4D2
:102F300013AFC4E90E67039BB3F80AB04FEA4B2BFB
:102F4000A16817E00425C2E7069B2362089B23F0D3
:102F5000FF039DF8172013436362179BA36221466A
:102F6000FEF745F9C6E7B1F1FF3F13D0B6EB08060F
:102F700067EB090785B9D8464FF00009B94508BF86
:102F8000B34509D22046FEF7DEFD01460128EAD806
:102F90000225E8E70125E9E72164002D7FF4DCAE96
:102FA000C6F30802002313433FF4D6AEDDF80C80CD
:102FB0004046FDF7EBFF024608B90225CDE6730A4D
:102FC00043EAC7531A4462640123514698F801004A
:102FD00001F032FD00283FF4BFAE0125BDE6092512
:102FE000BDE62DE9F04F87B004468846164699465F
:102FF0000023C9F80030039005A9FEF767F9029095
:10300000002840F0B28094F831300293002B40F059
:10301000AC8094F8303013F0010F00F0C3802269C7
:103020006069A36BE16BB2EB030A60EB010B002359
:103030009B4508BFB24559D2564657E0216C0398CC
:10304000FEF781FD6AE0022384F8313002938CE0C0
:10305000012384F83130029387E0022384F8313071
:10306000029382E094F93030002B01DB6D022FE0F7
:10307000606CA0EB0A00A842F8D24FF4007204F191
:10308000500108EB4020FDF7FAFEEFE7626C524575
:103090000DD094F93030002B6BDB0123524604F144
:1030A00050010598407801F0C7FC002875D1C4F89C
:1030B00044A0A36BC3F30803C3F50075AE4200D26E
:1030C000354604F150012A4619444046FDF7D7FE23
:1030D000761BD9F800302B44C9F80030A844D4E955
:1030E0000E23501943F10001C4E90E01002E3CD01B
:1030F000D4E90E23C2F30801009100210191DDE91A
:1031000000010143D5D1570A47EAC35705994989B8
:1031100001390F4008D1134390D1A068012892D9FA
:10312000B0F1FF3F94D02064DDF814B0216C584614
:10313000FDF72CFF824600288FD0BA44750AB6F5F9
:10314000007FA3D37B19BBF80A20934200D9D51B7B
:103150002B46524641469BF8010001F06DFC0028C9
:1031600080D0012384F831300293029807B0BDE883
:10317000F08F012304F150019BF8010001F06CFC79
:1031800030B994F8303003F07F0384F8303084E7AE
:10319000012384F831300293E7E7012384F83130CA
:1031A0000293E2E707230293DFE770B596B0044687
:1031B00015A9FEF78BF80346A0B994F8302012F059
:1031C000400F0FD012F0800F0FD101F005FC064622
:1031D00015980378042B1AD0A16CFEF7C3F80346A8
:1031E000002869D0184616B070BD0123626C04F146
:1031F00050011598407801F02FFC002840F08380A2
:1032000094F8303003F07F0384F83030DDE7204657
:10321000FEF780FC0346002846D0002BE2D1214671
:103220006846FFF73DF803460028DBD1159B196976
:103230000A7942F020020A71E279196942F001022A
:1032400081F821201869A1683430FDF7FBFD159B3A
:103250001869D4E904233830FDF7FEFD159B186981
:10326000D4E904232830FDF7F7FD159B1869314692
:103270000C30FDF7E7FD159B1A690021517518699F
:103280001030FDF7DFFD6846FFF7D2F8034600284F
:10329000A8D11598FFF7E0FC034694F8302022F0FF
:1032A000400284F830209DE74FF0FF32216C204629
:1032B000FEF718FC0346B0E7E56CEB7A43F0200319
:1032C000EB72A26829462068FDF77FFE216905F1AF
:1032D0001C00FDF7B7FD314605F11600FDF7B2FD04
:1032E000002105F11200FDF7A9FD159B0122DA70FE
:1032F0001598FFF7B1FC034694F8302022F0400205
:1033000084F830206EE701236CE710B582B00446E4
:10331000FFF74BFF034610B1184602B010BD01A9DC
:103320002046FDF7D3FF03460028F5D10022226096
:10333000F2E7FFFF7F2801D880B27047B0F5803FE9
:1033400013D240F25233994201D00020704700233B
:103350007F2B07D8064A32F81320824202D001336D
:103360009BB2F5E78033D8B270470020704700BFAA
:10337000A8E2001AB0F5803F45D2F0B487B2B7F5A5
:10338000805F01D2204B02E0204B00E033461A88D8
:10339000D2B1974218D31E1D5B88190ADBB284B2E2
:1033A0009D18AC4204DB0029F0D106EB4303EEE7A5
:1033B000082909D8DFE801F0050B1114171A1D20A0
:1033C0002300A41A36F814703846F0BC7047BA1AB5
:1033D00002F00103FF1ABFB2F6E7103FBFB2F3E7F6
:1033E000203FBFB2F0E7303FBFB2EDE71A3FBFB2B8
:1033F000EAE70837BFB2E7E7503FBFB2E4E7A7F517
:10340000E357BFB2E0E77047F8DF001AECE1001ABB
:1034100038B5044610F0070F02D020F00704083436
:1034200000F0EAFA134B1B687BB1134B1B681C447A
:1034300041F6F77294420ED8A34210D300F070FB0D
:103440000025FDF73BFB284638BD0C4B23F0070356
:10345000084A1360E9E700F063FB0025F1E7054A3D
:1034600015681D44044B1C6000F05AFB002DEAD186
:10347000E7E700BF0C110010103100101811001008
:1034800040B14FF0A00383F31188BFF36F8FBFF3F8
:103490004F8FFEE77047FFFF38B5E0B104460D4699
:1034A00000F0F8FC2168E26B236C03FB0210606003
:1034B0000020A063A160013A02FB0313E360FF2335
:1034C00084F8443084F84530EDB9236963B900F0DD
:1034D00003FD012038BD4FF0A00383F31188BFF333
:1034E0006F8FBFF34F8FFEE704F1100000F022FC56
:1034F0000028ECD0084B4FF080521A60BFF34F8F7A
:10350000BFF36F8FE3E704F1100000F039F804F126
:10351000240000F035F8DAE704ED00E010B5029B76
:103520000C4639B91B60D8631C6401211846FFF7AB
:10353000B3FF10BD1A60F6E740B94FF0A00383F364
:103540001188BFF36F8FBFF34F8FFEE7F0B583B0E5
:10355000054699B101FB00F017460C464830FFF7CD
:1035600057FF064638B100903B4600F1480221461D
:103570002846FFF7D3FF304603B0F0BD0020EBE74D
:1035800000F1080343604FF0FF328260C3600361C3
:1035900000230360704700230361704743684B605A
:1035A0009A688A605160996008610368013303601A
:1035B000704730B40D68B5F1FF3F02D000F108024A
:1035C00002E0026904E01A4653681C68AC42FAD96A
:1035D00053684B6099608A605160086103680133E9
:1035E000036030BC70470369416882688A60416843
:1035F00051605A68824206D0002202611A68013A7C
:103600001A601868704782685A60F5E710B582B092
:103610000C4601900023009300F03CFC01992246E7
:10362000044804F0CDFA009B002BFCD000F054FCC1
:1036300002B010BD1CE4001A08B5044804F0C0FA3A
:1036400003495020FFF7E2FF08BD00BFECE3001A7A
:10365000CCE3001A084B1B681B6823B9074B4FF0DB
:10366000FF321A607047044B1B68DB68DB685A68DE
:10367000024B1A60704700BF18310010F031001083
:1036800010B50446006BFFF7FBFE2046FFF7F8FE7F
:1036900010BD2DE9F04781460D4617469A46089E13
:1036A000DDF824800A9C9200A521206B04F02CFAFE
:1036B000236B07F18042013A03EB820727F00707EB
:1036C000676400230F2B06D8EA5CE11881F83420E8
:1036D0000AB10133F6E7002384F84330062E00D9FF
:1036E0000626E662A6640025E564201DFFF753FF69
:1036F00004F11800FFF74FFF2461C6F10706A66129
:103700006462256584F8545052464946384600F0B4
:1037100095FB2060B8F1000F01D0C8F80040BDE86B
:10372000F087FFFF38B50024062C08D804EB84028C
:1037300093000C481844FFF723FF0134F4E70A4DC7
:103740002846FFF71DFF094C2046FFF719FF0848E0
:10375000FFF716FF0748FFF713FF074B1D60074BE6
:103760001C6038BD20310010C4310010D831001069
:10377000F831001010320010183100101C31001008
:1037800010B5044600F086FB204A1368013313602D
:103790001F4B1B685BB11F4B1B686BB91C4B1B6835
:1037A000DA6AE36A9A4207D8194B1C6004E0184BA6
:1037B0001C601368012B26D0174A1368013313606D
:1037C000E36A01229A401549086802430A6003EB44
:1037D00083039A00211D12481044FFF7DFFE00F01A
:1037E0007BFB0C4B1B686BB1094B1B68DA6AE36A05
:1037F0009A4207D20B4B4FF080521A60BFF34F8FA3
:10380000BFF36F8F10BDFFF78DFFD5E7AC31001010
:10381000143100100C320010BC310010C031001007
:103820002031001004ED00E00F4B1B68D3B110B540
:1038300000F030FB0D4BDB68DC68201DFFF7D3FE8A
:103840000B4A1368013B1360074A1368013B13607E
:1038500000F042FB2046FFF713FF034B1B68002BD1
:10386000E6D110BD704700BFB0310010103200101B
:10387000AC31001008B5FFF7D7FF064B1B68012BD2
:10388000F9D9054B4FF080521A60BFF34F8FBFF349
:103890006F8FF0E72031001004ED00E038B50446EA
:1038A000174B1D68174B18680430FFF79CFE50B982
:1038B000144B1B68DA6A012303FA02F212490B68FF
:1038C00023EA02030B602C440E4B1B685C60A5428C
:1038D00007D90E4B18680B4B19680431FFF769FEC6
:1038E00038BD0B4B1868074B19680431FFF761FEB0
:1038F000084B1B68A342F3D9064B1C60F0E700BFDE
:103900002432001014310010C03100101C3100109E
:1039100018310010F03100102DE9F04385B0074652
:103920008846144699469000FFF772FDE8B10646B6
:103930005820FFF76DFD054698B10663D5B1002309
:10394000039302950D9B01930C9B00934B462246DB
:1039500041463846FFF79DFE2846FFF711FF01203C
:1039600005E03046FFF78CFDE8E74FF0FF3005B08B
:10397000BDE8F0834FF0FF30F9E7FFFF00B583B0FB
:10398000174B0193002300935A2216491648FFF75C
:10399000C3FF012805D0B0F1FF3F17D003B05DF899
:1039A00004FB4FF0A00383F31188BFF36F8FBFF3C5
:1039B0004F8F0E4B4FF0FF321A600D4B01221A60F1
:1039C0000C4B00221A6000F007FBE7E74FF0A00362
:1039D00083F31188BFF36F8FBFF34F8FFEE700BFF4
:1039E000EC3100105CE4001A7538001AF031001058
:1039F0000C32001024320010024A136801331360A5
:103A0000704700BFB8310010F8B53A4B1B68002B67
:103A100064D1394B1D6801351D60C5B9374B1B6832
:103A20001B6843B14FF0A00383F31188BFF36F8F7E
:103A3000BFF34F8FFEE7314A1168314B18681060B1
:103A40001960304A136801331360FFF703FE2E4BF1
:103A50001B68AB4238D900242C4B1B68DB6A03EB94
:103A600083039A002A4B9B58012B3CD901243AE04E
:103A70000124224B1B681B6843B3204B1B68DB6887
:103A8000DE6873689D4226D3371D3846FFF7ABFDCD
:103A9000B36A1BB106F11800FFF7A5FDF36A012216
:103AA0009A401C49086802430A6003EB83039A00AA
:103AB000394617481044FFF771FDF26A134B1B6833
:103AC000DB6A9A42D4D2D4E70024D2E70E4B4FF0FF
:103AD000FF321A60C0E70C4A1360BDE70E4A136854
:103AE0000133136000240D4B1B6803B101242046F1
:103AF000F8BD00BFB831001024320010183100109A
:103B00001C310010F4310010F0310010143100109D
:103B100020310010C0310010B431001028320010E4
:103B200038B5354B1B6843B94FF0A00383F31188B8
:103B3000BFF36F8FBFF34F8FFEE700F0ABF92E4B53
:103B40001A68013A1A601B68002B4DD12B4B1B6879
:103B50000BB9002449E00024294B1B681BB3284BF8
:103B6000DB68DC6804F11800FFF73DFD251D2846E1
:103B7000FFF739FDE36A01229A40224908680243AF
:103B80000A6003EB83039A0029461F481044FFF79D
:103B900005FDE26A1D4B1B68DB6A9A42DCD31C4BB5
:103BA00001221A60D8E70CB1FFF754FD194B1C68CD
:103BB00074B9174B1B68E3B1174B4FF080521A6072
:103BC000BFF34F8FBFF36F8F01240EE0013C07D08E
:103BD000FFF71AFF0028F9D00D4B01221A60F5E714
:103BE0000C4B00221A60E4E7002400F075F920462F
:103BF00038BD0024F9E700BFB8310010AC31001027
:103C0000F8310010C03100102031001014310010C4
:103C100028320010B431001004ED00E010B5A8B156
:103C200004460F4B1B6843B14FF0A00383F3118888
:103C3000BFF36F8FBFF34F8FFEE7FFF7DDFE00216D
:103C40002046FFF72BFEFFF76BFF38B9054B4FF00F
:103C500080521A60BFF34F8FBFF36F8F10BD00BF4C
:103C6000B831001004ED00E02D4B1B681BB12D4B4B
:103C700001221A60704710B52A4B00221A602A4BA5
:103C80001B681B6B1A68B2F1A53F03D15A68B2F1E9
:103C9000A53F1BD0244B186819683431FFF7CCFCC2
:103CA000224B1B68B3FA83F3DBB2C3F11F0303EBB0
:103CB00083018A001E498A588AB94FF0A00383F312
:103CC0001188BFF36F8FBFF34F8FFEE79A68B2F191
:103CD000A53FDFD1DB68B3F1A53FDBD1E0E71448B6
:103CE0009A00D418A10001444C6864684C601A44DE
:103CF000910008310844844209D003EB83039A0001
:103D00000B4B13445B68DA68074B1A6010BD6068A0
:103D100003EB83029100064A0A445060EDE700BFBE
:103D2000B83100102832001014310010C0310010DA
:103D30002031001038B5C368DC6824B304F11805DD
:103D40002846FFF750FC184B1B682BBB251D284647
:103D5000FFF749FCE36A01229A40144908680243CC
:103D60000A6003EB83039A00294611481044FFF7C9
:103D700015FCE26A0F4B1B68DB6A9A4211D90120DD
:103D80000D4B18600EE04FF0A00383F31188BFF3D2
:103D90006F8FBFF34F8FFEE729460848FFF7FEFB02
:103DA000E7E7002038BD00BFB8310010C031001077
:103DB000203100101431001028320010F8310010AA
:103DC00082B0002301930D4B1B68B3F1FF3F08D075
:103DD0004FF0A00383F31188BFF36F8FBFF34F8FB2
:103DE000FEE74FF0A00383F31188BFF36F8FBFF39B
:103DF0004F8F019B002BFCD002B0704704000010D5
:103E000008480068006880F308884FF0000080F3DD
:103E1000148862B661B6BFF34F8FBFF36F8F00DFB8
:103E200000BF000008ED00E0DFF80C00016841F47D
:103E3000700101607047000088ED00E04FF0807372
:103E400040F8043C21F0010140F8081C054B40F803
:103E50000C3C40F8202C6FF0020340F8243C44381E
:103E6000704700BFC13D001AFFFFFFFFFFFFFFFFCC
:103E7000074B19680868B0E8F04F80F30988BFF372
:103E80006F8F4FF0000080F311887047AFF3008010
:103E9000143100104FF0A00383F31188BFF36F8F2C
:103EA000BFF34F8F0A4A136801331360012B00D010
:103EB0007047084B1B6813F0FF0FF9D04FF0A003B9
:103EC00083F31188BFF36F8FBFF34F8FFEE700BFFF
:103ED0000400001004ED00E0094B1B6843B94FF0EB
:103EE000A00383F31188BFF36F8FBFF34F8FFEE7FB
:103EF000013B034A13600BB983F31188704700BF7D
:103F000004000010FFFFFFFFFFFFFFFFFFFFFFFFA9
:103F1000EFF30980BFF36F8F154B1A681EF0100F77
:103F200008BF20ED108A20E9F04F10602DE909004C
:103F30004FF0A00080F31188BFF34F8FBFF36F8F56
:103F4000FFF792FE4FF0000080F3118809BC19685A
:103F50000868B0E8F04F1EF0100F08BFB0EC108AF0
:103F600080F30988BFF36F8F704700BFAFF3008005
:103F70001431001008B54FF0A00383F31188BFF38C
:103F80006F8FBFF34F8FFFF73FFD18B1034B4FF01B
:103F900080521A60002383F3118808BD04ED00E00D
:103FA000084A0023136008490B60084B1B68084946
:103FB000A1FB03139B09013B06490B600723136018
:103FC000704700BF10E000E018E000E0383D00104E
:103FD000D34D621014E000E03A4B1A683A4B9A4213
:103FE00029D0384B1A68394B9A422DD010B582B07F
:103FF000374B1A78D2B20192FF221A701B78DBB2CB
:104000008DF803309DF8033003F0A003314A13709C
:10401000314B07221A609DF8033013F0800F1CD03B
:104020002D4A1368013B13609DF803305B00DBB23F
:104030008DF80330EFE74FF0A00383F31188BFF34F
:104040006F8FBFF34F8FFEE74FF0A00383F311880C
:10405000BFF36F8FBFF34F8FFEE71F4B1B68042B1F
:1040600008D04FF0A00383F31188BFF36F8FBFF325
:104070004F8FFEE71B0203F4E063174A1360019BB6
:10408000DBB2134A1370154B1A6842F460021A60CF
:104090001A6842F060421A60FFF782FF0024104B5A
:1040A0001C60FFF7C1FE0F4A136843F040431360E2
:1040B000FFF7A6FEFFF7D8FDFFF782FE204602B00D
:1040C00010BD00BF00ED00E071C20F4170C20F4192
:1040D00000E400E02C3200103032001020ED00E04F
:1040E0000400001034EF00E008B5054B0122C3F8CE
:1040F0008021044B1B6813B1024B1B68984708BD15
:1041000000E100E03432001008B5034B1870034B97
:104110001B6803B1984708BD080000103C3200102E
:104120000120704700B587B00190002302930393EC
:104130000493059101A9034801F0F9FB07B05DF86C
:1041400004FB00BF00500C4000B583B08DF80700A1
:1041500001210DF10700FFF7E5FF03B05DF804FB57
:1041600000B587B000230193029303900493059157
:1041700001A9034801F0DBFB07B05DF804FB00BFB9
:1041800000500C4000B583B000238DF807300121AA
:104190000DF10700FFF7E4FF9DF8070003B05DF89D
:1041A00004FBFFFF08B5074B32221A70FFF7EAFF46
:1041B000FFF7E8FFFF2803D0024B1B78002BF7D155
:1041C00008BD00BF3A32001008B5044A42F20C2381
:1041D0000121D150FFF7D6FF08BD00BF00400F40BE
:1041E00008B5074A42F28C230121D150FFF7DAFFCC
:1041F000FF2801D1012008BDFFF7E6FF0020FAE704
:1042000000400F4038B504460D4610F0800F29D10C
:10421000FFF7DAFFFFF7E4FFA0B32046FFF794FFB4
:10422000280EFFF791FFC5F30740FFF78DFFC5F399
:104230000720FFF789FFE8B2FFF786FF402C1AD06E
:104240000120482C19D0FFF77FFF4C2C17D00A24EF
:10425000FFF798FF10F0800F03D0631E13F0FF04E8
:10426000F6D138BD00F07F0400217720FFF7CAFFA8
:104270000128CDD9F5E79520E3E78720E3E7FFF7AD
:1042800081FFE4E7FF20ECE770B506460C46FFF738
:1042900089FFFF2801D0002070BD2046FFF754FFA2
:1042A000FD2C1BD00024354615F8020BFFF74CFF00
:1042B0007078FFF749FF631E2E4613F0FF04F2D11A
:1042C000FF20FFF741FFFF20FFF73EFFFFF75AFFF8
:1042D00000F01F00052803D10120DDE70120DBE706
:1042E0000020D9E7F8B504460E46154B14221A7083
:1042F000FFF748FFFF2803D1114B1B78002BF7D1A4
:10430000FE281BD1651C01212046FFF729FFA71CB1
:1043100001212846FFF724FFE51C01213846FFF75D
:104320001FFF012128460434FFF71AFF043EE9D19C
:10433000FFF728FFFFF726FF0120F8BD0020FCE76C
:1043400039320010014B1878704700BF0900001087
:1043500070B582B05F4B1B7813F0020F09D15D4B33
:104360001B7813F0010F0BD15A4B1878C0B202B072
:1043700070BD594800F0F6FC564B1878C0B2F6E70D
:10438000564800F0EFFC564B1968564801F023FBE5
:104390000A2424B1FFF7F6FE013CE4B2F9E75248E3
:1043A00000F0E0FC0320FFF7AFFE00214020FFF704
:1043B00029FF0546012819D04C4B1C70FFF704FF5C
:1043C000002C7FD0434A137803F0FE031370484B50
:1043D0001968444801F0FFFA464800F0C3FC052084
:1043E000FFF792FE3B4B1878C0B2C0E7424800F09E
:1043F000B9FC0420FFF788FE404B64221A704FF48A
:10440000D5714820FFF7FEFE012839D1254607E087
:10441000FFF7B8FE02AB2B4403F8040C0135EDB2F4
:10442000032DF5D99DF80630012BC5D19DF8073035
:10443000AA2BC1D1314B1B7833B14FF08041E92019
:10444000FFF7E0FE0028F5D12C4B1B78002BB3D0F2
:1044500000217A20FFF7D6FE054640B1ACE7FFF712
:1044600091FE02AB2B4403F8040C0135EDB2032D91
:10447000F5D99DF8043013F0400F21D00C249BE7B0
:104480000021E920FFF7BEFE012816D941261B4B6B
:104490001B782BB100213046FFF7B4FE0028F6D17F
:1044A000164B1B78002B87D04FF400715020FFF77C
:1044B000A9FE002880D12C467EE70225E926E6E702
:1044C000042479E70E4800F04DFC0020FFF71CFEA5
:1044D00088E700BF0900001064E4001A88E4001AAD
:1044E0001000001000500C40B0E4001A38320010E8
:1044F0000C00001010E5001AE0E4001A3932001038
:1045000048E5001A38B51D4B1B7813F0010F21D177
:10451000054614461A4B1B7813F0080F00D14902C8
:10452000012C1CD05220FFF76DFE68B94FF40071CA
:104530002846FFF7D7FE18B105F50075013CF5D107
:1045400000214C20FFF75EFEFFF73EFE201C18BF47
:10455000012038BD0B4800F005FC0320F9E751208D
:10456000FFF750FE0028EFD14FF400712846FFF707
:10457000B9FE0028E8D00024E6E700BF09000010DB
:1045800038320010D0E5001A70B5284B1B7813F0B4
:10459000010F2BD105460E461446244B1B7813F011
:1045A000040F28D1224B1B7813F0080F00D14E02C4
:1045B000012C25D013F0060F30D131465920FFF7DA
:1045C00021FE68B9FC212846FFF75EFE18B105F50B
:1045D0000075013CF6D1FD210020FFF755FE10B318
:1045E000FFF7F2FD201C18BF012070BD114800F03C
:1045F000B9FB0320F9E7104800F0B4FB0220F4E710
:1046000031465820FFF7FEFD0028E9D1FE2128465B
:10461000FFF73AFE0028E3D00024E1E72146D72047
:10462000FFF7F0FDC9E70124DAE700BF0900001039
:1046300038320010F8E5001A20E6001A30B585B0CF
:104640000C46052818D0B44B1B7813F0010F1FD16E
:104650000E2800F24881DFE810F020002B006D00EA
:104660007400460146014601460146014601D2005A
:10467000D900E900F7000A010B78012B40F24A81CA
:10468000022B40F04081FFF74BFD607000243EE1BB
:10469000A24800F067FB032439E1FFF7A1FD0028E1
:1046A00000F01D81FFF790FDFFF78EFD00242EE145
:1046B00000214920FFF7A6FD002840F00C811021C1
:1046C0006846FFF70FFE002800F019819DF80030C2
:1046D0009B09012B22D09DF8052002F00F029DF8C6
:1046E0000A3002EBD3129DF809305B0003F0060399
:1046F0001A449DF808309DF807109B0903EB8103CD
:104700009DF80610890201F440610B440133073A19
:1047100093402360FFF758FD0024F8E09DF809302E
:104720009DF8082003EB02239BB201339BB29B024E
:104730002360EFE74FF400730B80FFF745FD002483
:10474000E5E0774B1B7813F0040F21D00021CD203A
:10475000FFF758FD002840F0B680FFF713FD102149
:104760006846FFF7BFFD002800F0B180302503E068
:10477000FFF708FD013DEDB2002DF9D19DF80A309B
:104780001A09102393402360FFF71EFD0024BEE0AA
:1047900000214920FFF736FD002840F0AC801021B1
:1047A0006846FFF79FFD002800F089805C4B1B786E
:1047B00013F0020F13D09DF80A305B0003F07E0364
:1047C0009DF80B2003EBD21301339DF80D209209C5
:1047D000013A93402360FFF7F7FC002497E09DF82F
:1047E0000A30C3F384029DF80B10CB0003F01803CA
:1047F00003EB5113013302FB03332360EBE7484B18
:104800001B780B70FFF7E0FC002480E000214920BA
:10481000FFF7F8FC00284ED110212046FFF762FD7B
:10482000002844D1FFF7D0FC01246DE000214A208C
:10483000FFF7E8FCB8BB10212046FFF753FD70BB23
:10484000FFF7C2FC01245FE000217A20FFF7DAFCC9
:1048500008BB042505E0FFF795FC04F8010B013DBA
:10486000EDB2002DF7D1FFF7AFFC00244FE000219F
:10487000CD20FFF7C7FC50B9FFF784FC402120464C
:10488000FFF730FD98B3FFF79FFC00243FE0FFF7F0
:104890009BFC012438E0FFF797FC012434E0FFF78C
:1048A00093FC002433E0FFF78FFC01242CE0FFF79A
:1048B0008BFC00242BE0FFF787FC012424E0FFF7AA
:1048C00083FC012420E0FFF77FFC01241CE0FFF7BC
:1048D0007BFC012418E0FFF777FC012414E0FFF7CC
:1048E00073FC012410E0FFF76FFC04240CE0FFF7D9
:1048F0006BFC012408E0FFF767FC012404E0FFF7EC
:1049000063FC012400E00424064800F02BFA204652
:1049100005B030BD0024FAE70900001084E5001A54
:1049200038320010ACE5001A10B5134C204601F0E7
:1049300071F8636823F004036360236823F0FF03C6
:1049400043F0070323600D4B1968204601F043F83C
:10495000636843F002036360FFF736FC084A13788C
:1049600003F0FD031370074800F0FCF90220FFF785
:10497000CBFBFFF7EDFC10BD00500C401000001009
:10498000090000104CE6001A014B1868704700BF80
:1049900010000010014B1868704700BF0C00001099
:1049A000014B1860704700BF3C320010084B1B7869
:1049B00023B1074A1378013BDBB21370054B1B7818
:1049C00023B1044A1378013BDBB21370704700BF78
:1049D000393200103A32001000B589B069460C48EF
:1049E00000F0D6FE079BA3F2BC70069B5B0543EA72
:1049F0004063039843EA0043029843EAC0230198C6
:104A000043EA4013009843EA500009B05DF804FB04
:104A10000060044008B5FFF7C9FF08BD08B10120D8
:104A2000704708B5FFF78EFC08BD08B1012070473C
:104A300008B5FFF78DFC08BD51B110B553B108B1F1
:104A4000042010BD084611461A46FFF75BFDF8E743
:104A5000042070470420F4E751B110B553B108B1F8
:104A6000042010BD084611461A46FFF78DFDF8E7F1
:104A7000042070470420F4E708B10420704708B50B
:104A800008461146FFF7DAFD08BDFFFFA0B110B5DB
:104A900004460A4A12680AB1002010BD4FF40F7292
:104AA000002103F031F8054B1C600548FFF778FF43
:104AB000FFF73AFF0120F0E7002070474032001076
:104AC0004D4B001A034B1B6813B193F83902704722
:104AD0000620704740320010004870477CE6001AFC
:104AE00038B5184B1D6835B318B195F83932042B19
:104AF00023D108B12B4600E00023044601221249CD
:104B00001846FEF7EFF885F83802C0B934B10D4BFE
:104B10001B68052283F83922204611E0094B1B68E7
:104B200093F83922052A01D0012009E0042283F8F4
:104B30003922012004E0002002E0002000E00020F3
:104B400038BD00BF403200107CE6001A08B50528C9
:104B50000BD8DFE800F02B030B11171D164B1B6859
:104B6000002083F83902FFF7BBFF08BD124B1B681A
:104B7000012283F83922F8E70F4B1B68022283F8E1
:104B80003922F2E70C4B1B68032283F83922ECE749
:104B9000094B1B68042283F839220120FFF7A0FF8C
:104BA0000028E2D1054800F0DDF8DEE7024B1B6883
:104BB000062283F83922D8E74032001084E6001A32
:104BC0000022052A19D870B40C4911F8125001EBD3
:104BD00042014C780A4B05F5006653F82610012077
:104BE000A040014343F8261003EB4513002119555B
:104BF0000132052AE8D970BC70477047B4E6001A44
:104C000000400F400023032B16D830B40B4911F895
:104C1000132001EB43014D78094C02F5006254F872
:104C200022100120A84021EA000144F8221001339B
:104C3000032BEBD930BC7047704700BFACE6001ABD
:104C400000400F400023082B16D830B40B4911F850
:104C5000132001EB43014D78094C02F5006254F832
:104C600022100120A84021EA000144F8221001335B
:104C7000082BEBD930BC7047704700BFC0E6001A64
:104C800000400F4010B582B0084C6946204600F045
:104C9000C3F9074A6946204600F0DEF9002269465A
:104CA000204600F0F2F902B010BD00BF00300E4007
:104CB000801A060010B50B4C204600F0ABFE63686E
:104CC00023F004036360236823F0FF0343F007032A
:104CD00023600549204600F07EFE636843F002032E
:104CE000636010BD00500C40A086010008B5002094
:104CF00000F076FD044B40F60802C3F8842C03490B
:104D0000002000F07FFD08BD0060084040420F0019
:104D100010B5074C204600F0C3F84FF4E1312046AF
:104D200000F0E8F80323E3600123E36510BD00BF52
:104D300000100C40034B5B6913F0200FFAD0014BBD
:104D40001860704700100C40054B5B6913F0010FB1
:104D500003D0034B1868C0B270474FF0FF30704764
:104D600000100C4010B50446207818B10134FFF74C
:104D7000E1FFF9E710BDFFFF08B5FFF7C9FF0948DC
:104D800000F01CFDFFF75EFFFFF77CFFFFF792FFCF
:104D9000FFF7ACFFFFF714FFFFF734FF00F07CF9DB
:104DA00008BD00BF00400F4008B5C0B2FFF7C2FF0A
:104DB00008BD08B5FFF7C8FF08BD08B5FFF7A8FF95
:104DC00008BDFFFF00231C2B12D810B4094A02EBC8
:104DD000830112F823404A78488802EB44120649BE
:104DE00041F8220001331C2BF0D95DF8044B7047C9
:104DF000704700BFDCE6001A0060084010B5174A93
:104E0000D2F8203123F4704343F41043C2F8203128
:104E1000D2F8243123F4704343F41043C2F8243110
:104E200001220F49062000F007FC00244CB10B4B77
:104E30005A6822F00C025A605A6842F003025A6023
:104E400010BD084800EB840101238A78497810F8E6
:104E5000240000F04DFB0134E8E700BF00300440BF
:104E600000CB280CD8E6001A08B5FFF7ABFFFFF718
:104E7000C5FF08BD094B984209D003F580539842FD
:104E800007D0A3F58023984205D000207047022068
:104E90007047032070470120704700BF00100C408E
:104EA00030B583B00446FFF7E5FF01231A461946E3
:104EB0000E4D35F8100000F061FB0723A3600023BE
:104EC000E3656360E3602362E36463652365084B25
:104ED0009C4206D00323E3601023A362019B03B02E
:104EE00030BD00232361A3690193F3E758E7001A5B
:104EF000002008402DE9F04F83B001908846FFF76D
:104F0000B9FF324B33F8100000F070FB06464FF04B
:104F1000FF3701244FF0000BA246D9462AE0424257
:104F20004B1C17E00AB31746AB46A246994601351B
:104F3000AC421ED933093007A4FB000104FB031166
:104F4000621908FB02F2002301F0CEFD02460B4677
:104F50000028E4DB9742EAD3002BE8D0190CE6D115
:104F6000022BDFD8002DDDD0E1E71746AB46A24685
:104F7000994601341FB10F2C01D80025D8E7B9F1AB
:104F8000000F1ED0019A1146D36843F08003D3600E
:104F90005FFA89F31360C9F307235360D36823F0E2
:104FA0008003D3604FEA0A13DBB20BF00F02134306
:104FB0008B6233090AFB03F3DA4409FB0AF9B3FBFA
:104FC000F9F9484603B0BDE8F08F00BF50E7001A7A
:104FD000034B984201D0032070470420704700BF64
:104FE00000400E4070B50D4614461E46FFF7F0FF18
:104FF00000F0FCFA55B104FB06F404EB4000640039
:10500000B0FBF4F0C0B20138C0B270BD04EB840351
:1050100004EB4304F1E7FFFF38B505460C46FFF704
:10502000D7FF01231A46194600F0A8FA0021E960CB
:10503000084A2260217161710B232846FFF7D2FFD5
:10504000000240F400132079400400F4602018436B
:10505000286038BD801A060070B505460E46046803
:1050600024F46F2424F470640A600B79C3F10B03F9
:10507000DBB24979FFF7B6FF44EA002033795B04DD
:1050800003F4602303432B6070BD08B50A710A68FE
:10509000FFF7E2FF08BDFFFF08B5692000F0A6FAA0
:1050A000014B186008BD00BF383D0010F0B40B681C
:1050B00013F0800F02D023F040030B600746012558
:1050C0003AE04B6903FB02F3B3FBF5F31CE01C462B
:1050D000B0EB040C27D4674506D98D60771CCF60F0
:1050E0000A618C61CB6167460132B2F5807F1DDCBD
:1050F0000C6814F0400FE4D0731C02FA03FC4B69F7
:1051000003FB0CF3B3FBF5F3DFF838C06345EBD9D1
:10511000DFF834C0634509D814F0800FD7D1741C70
:1051200023FA04F4D4E7CCF1000CD4E70136032EC3
:1051300001DC0122D9E70135042D01DC0026F6E768
:10514000F0BC7047FF5E4C0900D01213F0B599B067
:1051500005460C465C22002101A802F0D5FC802304
:1051600000936369059323798DF8043069462846D6
:10517000FFF79CFF069BAB4227D0EB1A2ED41E46AE
:10518000109B23F0400310936369159323798DF8E6
:10519000443010A92846FFF789FF169BAB421FD069
:1051A000EB1A25D41F462B4B9D4223D90E9BED1A9B
:1051B00033D4AE423BDCBE4231DC6D460FCD0FC472
:1051C00095E80F0084E80F0006E06D460FCD0FC490
:1051D00095E80F0084E80F0019B0F0BD5B42CEE700
:1051E00010AD0FCD0FC495E80F0084E80F00F3E772
:1051F0005B42D7E74023089363690D9308A92846CB
:10520000FFF754FF0E9BAB42D0D108AD0FCD0FC4BA
:1052100095E80F0084E80F00DEE76D42C9E710ADA6
:105220000FCD0FC495E80F0084E80F00D4E7AF421C
:1052300007DB08AD0FCD0FC495E80F0084E80F0021
:10524000CAE710AD0FCD0FC495E80F0084E80F003A
:10525000C2E700BF80778E0630B4054600231C20CD
:1052600000E001331C2818D103EB430251000C4A23
:105270000A441479844210D003EB43014A000849E0
:105280008A5AAA42EDD803EB43025100044A0A4469
:105290005288AA42E5D32046E4E730BC704700BFFD
:1052A0006CE7001A82B04FF47A7301930D4A936948
:1052B00023F0020192698A4201D00A4A916123F0E7
:1052C0000303094A1168094A914201D943F00403D2
:1052D000044A9361019B5A1E0192002BFAD102B03D
:1052E000704700BF00000540D4E6001AFF2C3101D2
:1052F0001230054B53F8200010F0010F02D1C0F31B
:1053000004607047112070470000054000F1120250
:10531000034B53F82220034B185C00EA92007047BD
:105320000000054064E7001A08B510280AD8DFE835
:1053300000F0440B0D18210924272A2D09093034C7
:10534000383C400000203AE01E4838E01E4BD3F8BD
:105350002C3103F00703042B01D01C482FE0002060
:105360002DE0194BD3F82C3103F00703042B27D081
:10537000164824E0164B186821E0164B18681EE00A
:10538000154B18681BE0144B586818E000F068F8DB
:1053900015E0002100F09AF811E0012100F096F8E4
:1053A0000DE0022100F092F809E0032100F08EF8F0
:1053B00005E0042100F08AF801E04FF4004008BD48
:1053C0000648FCE7001BB7000030044040787D0130
:1053D000A8E6001AD4E6001A4432001080F0FA025F
:1053E00038B505460C460879FFF79EFF6061194BFA
:1053F0002B44194A934221D818B3802323600023F9
:10540000A360E360B5FBF0F32361144A954203D92E
:1054100003FB00F0A84207D021462846FFF796FE7E
:10542000A3688BB1013BA360236983B1E2680AB131
:10543000013AE260013B2361002038BD4FF0FF30AC
:10544000FBE74FF0FF30F8E74FF0FF30F5E74FF0A4
:10545000FF30F2E7103A6BFF1005940BFF5E4C092A
:1054600030B583B0174D6C6CC4F30360FFF75CFF7D
:10547000154B1B6801932B6C13F0010F20D0C4F364
:105480000743C4F30132C4F30121C4F3801501338F
:1054900001320DF1080C614411F8041C14F0800F66
:1054A00008D13DB94900B3FBF1F3B0FBF2F000FBCA
:1054B00003F003E0B0FBF2F003FB00F003B030BDFB
:1054C0000020FBE70000054060E7001A38B50C46F5
:1054D0000846FFF70DFF05462046FFF717FF044675
:1054E0002846FFF721FF0134B0FBF4F038BDFFFF81
:1054F00030B400F11604A40004F1804404F5A024A3
:1055000064681B2813D811291AD00E4D25400AB102
:1055100045F400650BB145F0010545EA016516301B
:10552000800000F1804000F5A020456008E044F0D4
:1055300001041630800000F1804000F5A020446096
:1055400030BC7047FEF7FFE01B280CD816308000F7
:1055500000F1804000F5A020406810F0010F04D158
:10556000C0F304607047112070471120704708B5E0
:10557000FFF7EAFFFFF7D8FE08BDFFFF71B9012171
:105580000AB141F00401022B0AD0B0F5A17F0AD381
:10559000A0F59170064B43F8301070470321EFE7F8
:1055A00041F02001F1E72030024B43F83010704702
:1055B0000020054000100540B0F5A17F09D3094A3D
:1055C000A0F5917052F8303043F0010342F83030CA
:1055D0007047054A203052F8303043F0010342F85A
:1055E00030307047002005400010054010B5B0F580
:1055F000A17F09D3A0F591730D4A52F8334014F0FE
:10560000010F07D1002010BD00F12003094A52F814
:105610003340F4E7FFF720FEFFF7A9FF14F0E00F97
:1056200003D10123B0FBF3F0EDE70223FAE700BF5B
:10563000002005400010054070B58AB005460E46B2
:1056400014464CF250330993062818D00023012247
:1056500029460420FFF74CFF4A4A536C43F00103EC
:1056600053648DF8085001A93046FFF7B9FE464B48
:105670009E4216D9019B13F0400F03D0FEE7FFF7BF
:1056800011FEE3E713F0800F05D023F080030193B0
:105690000025012607E0049B013304930125002621
:1056A00001E000252E469DF80820019B43EA026395
:1056B000059A43EA0243039A43EA0233049A43EA0F
:1056C000022343F400632F4A53642E4B1B6C13F0E8
:1056D000010FFAD00023012209210420FFF708FF5F
:1056E00006B34CF250330993099B5A1E0992002BC2
:1056F000FAD1019B43F0800301939DF8082043EA0F
:105700000263059A43EA0243039A43EA0233049A86
:1057100043EA022343F400631A4A5364002C2ED157
:105720000AB070BD002DF9D04CF250330993099B9B
:105730005A1E0992002BFAD1049B5A1E04929DF81E
:105740000810019B43EA0163059943EA0143039969
:1057500043EA013343EA022343F40063094A5364F2
:10576000DCE70A4800EB8401CB788A78497810F8A6
:105770002400FFF7BDFE0134112CF2D9D0E700243C
:10578000FAE700BF0000054080778E06D8E7001AD0
:1057900010B4FF24036AA3420DD0046A0C600123F5
:1057A000072BF7D803F1080250F8222041F82320F4
:1057B0000133DBB2F4E75DF8044B70477047FFFF3D
:1057C000012909D1C0EBC0008200044B13441A69BF
:1057D000137DDBB2042BFBD0704700BF1800001014
:1057E00070B50546064EC400221A930033449888CB
:1057F000FFF7E2FE641BA300F3586C229A6170BDB0
:10580000180000102DE9F0410C460B4EC5002B1A74
:105810004FEA830806EB08039888FFF7E7FEB0FB22
:10582000F4F056F8083042081A6156F808301A6940
:10583000801A5861BDE8F081180000100B6833B180
:105840004A689B5A83604B6802334B6070474FF63F
:10585000FF738360F7E70B6833B14A689B5C836032
:105860004B6801334B607047FF238360F8E7C368E0
:1058700013F0040F1BD0CA680B699A4216D210B4F9
:105880000AE0CB680233CB60C36813F0040F0AD080
:10589000CA680B699A4206D283689BB28C68002C56
:1058A000EFD0A352EDE75DF8044B704770477047A7
:1058B000C36813F0040F1AD0CB680A69934215D25B
:1058C00010B40AE0CB680133CB60C36813F0040F57
:1058D00009D0CB680A69934205D284688A68002A95
:1058E000F0D0D454EEE75DF8044B70477047704732
:1058F000034B984201D083207047A520704700BF1A
:1059000000500C40044B984202D040F202207047F5
:105910004FF4F170704700BF00500C40036823F44F
:105920007F43090289B2194301600261704738B5AB
:1059300004460D46E36813F0040F01D0A368F9E7AD
:1059400003232362236813F0080F08D122E0A36920
:1059500013F0010F39D129462046FFF788FFEA6886
:105960002B699A4202D36A68934226D9E26812F000
:10597000020FECD06A689A42E9D229462046FFF726
:105980005DFFE4E7A36913F0010F20D1294620460B
:10599000FFF78EFFEA682B699A4202D36A68934246
:1059A0000BD9E26812F0020FECD06A689A42E9D291
:1059B00029462046FFF74FFFE4E72B680BB16868E4
:1059C00004E0AB682BB1E86800E0002038BD00209F
:1059D000FCE70020FAE770B506460D46FFF792FF98
:1059E000FFF704FE02224FF0FF33002100E02146C2
:1059F000AB420BD94C1C02FB04F3B0FBF3F39D420A
:105A0000F6D2FF2CF3D902320021F1E73046FFF73E
:105A100085FF70BD10B50446FFF76AFFFFF7CCFDA8
:105A20002046FFF76FFFFFF7C7FD636823F004030D
:105A30006360236823F0FF0343F0070323600249F8
:105A40002046FFF7C8FF10BDA08601002DE9F04FEA
:105A500085B00C4693469A462320FFF7C7FD0246C1
:105A600003902668002794F80580A6FB0845AB0044
:105A700043EA9473CDE90045A40019043B4600981D
:105A8000800441EA144101F02FF80546402454B146
:105A9000A4FB052304FB0133002B08BFB2F5803FB4
:105AA00001D3013CF3E7002C42D0A446A4FB000143
:105AB0004FF6FF7E0025FF221BE095B2A6FB0501F5
:105AC000A8FB002308FB0133ACFB02890CFB039904
:105AD0004FEA8901039A3B464FEA880041EA9871F0
