:020000041A00E0
:10000000008000106905001A7901001A7B01001AAE
:100010007D01001A7F01001A8101001A2673FF5327
:100020000000000000000000000000008120001A15
:100030008501001A000000002121001A8521001A04
:100040005523001ABB01001ABB01001A0000000072
:10005000BB01001ABB01001ABB01001ABB01001A48
:100060002934001ABB01001ABB01001ABB01001A97
:10007000BB01001ABB01001ABB01001ABB01001A28
:10008000BB01001ABB01001ABB01001ABB01001A18
:10009000BB01001ABB01001ABB01001ABB01001A08
:1000A000BB01001ABB01001ABB01001ABB01001AF8
:1000B000BB01001ABB01001ABB01001ABB01001AE8
:1000C000BB01001ABB01001ABB01001ABB01001AD8
:1000D000BB01001ABB01001ABB01001ABB01001AC8
:1000E000BB01001ABB01001ABB01001ABB01001AB8
:1000F00000000000BB01001ABB01001ABB01001A7E
:1001000000000000BB01001ABB01001ABB01001A6D
:10011000BB01001AD44B001A00000010A40000001C
:10012000D44B001A0000081000000000D44B001A45
:100130000000002000000000D44B001A00800020C6
:1001400000000000D44B001A00C000200000000096
:10015000A4000010002200000000081000000000B1
:1001600000000020000000000080002000000000CF
:1001700000C0002000000000FEE7FEE7FEE7FEE70B
:10018000FEE7FEE7FEE7FEE7FEE7002393420AD222
:1001900010B450F8044B41F8044B04339342F8D3A5
:1001A0005DF8044B7047704700238B4204D2002255
:1001B00040F8042B0433F8E77047FEE7FFFFFFFF2A
:1001C000FFFFFFFFFFFFFFFFFFFFFFFFFFFFFFFF3F
:1001D000FFFFFFFFFFFFFFFFFFFFFFFFFFFFFFFF2F
:1001E000FFFFFFFFFFFFFFFFFFFFFFFFFFFFFFFF1F
:1001F000FFFFFFFFFFFFFFFFFFFFFFFFFFFFFFFF0F
:10020000FFFFFFFFFFFFFFFFFFFFFFFFFFFFFFFFFE
:10021000FFFFFFFFFFFFFFFFFFFFFFFFFFFFFFFFEE
:10022000FFFFFFFFFFFFFFFFFFFFFFFFFFFFFFFFDE
:10023000FFFFFFFFFFFFFFFFFFFFFFFFFFFFFFFFCE
:10024000FFFFFFFFFFFFFFFFFFFFFFFFFFFFFFFFBE
:10025000FFFFFFFFFFFFFFFFFFFFFFFFFFFFFFFFAE
:10026000FFFFFFFFFFFFFFFFFFFFFFFFFFFFFFFF9E
:10027000FFFFFFFFFFFFFFFFFFFFFFFFFFFFFFFF8E
:10028000FFFFFFFFFFFFFFFFFFFFFFFFFFFFFFFF7E
:10029000FFFFFFFFFFFFFFFFFFFFFFFFFFFFFFFF6E
:1002A000FFFFFFFFFFFFFFFFFFFFFFFFFFFFFFFF5E
:1002B000FFFFFFFFFFFFFFFFFFFFFFFFFFFFFFFF4E
:1002C000FFFFFFFFFFFFFFFFFFFFFFFFFFFFFFFF3E
:1002D000FFFFFFFFFFFFFFFFFFFFFFFFFFFFFFFF2E
:1002E000FFFFFFFFFFFFFFFFFFFFFFFFFFFFFFFF1E
:1002F000FFFFFFFFFFFFFFFFFFFFFFFFFFFFFFFF0E
:1003000008B500F0D5F8242000F0D8F8012001F05D
:10031000CFF9F8E770B545B201E000F08DF80D4C6B
:100320004FF0FF31206800F023FD00F07FF8064613
:100330000121284603F00EF8304601F0B9F90021FA
:10034000284603F007F8206800F0E4FD0028E6D115
:10035000E3E700BF3C2200102DE9F04383B003F037
:1003600071F84FF4E1320321274803F0A1F8274840
:1003700004F026F8264F274E00240194012500950D
:100380002823B4223946304601F006F8814601940C
:1003900000952923B4223946304600F0FDFF8046FF
:1003A000019400952A23B4223946304600F0F4FF28
:1003B0000646019400952346B4221749174800F0D9
:1003C000EBFFB9F1000F04D1B8F1000F01D106B96C
:1003D00048B10021032000F0D4FA114B186050B14D
:1003E00001F00CF8FEE729462B2002F0B3FF0D4880
:1003F00003F0E6FFFEE701212B2002F0ABFF0A48E5
:1004000003F0DEFFFEE700BFA40000105847001A0B
:100410006847001A1503001A7447001A0103001AEE
:100420003C2200108047001A9C47001A014B1868B4
:10043000704700BF44220010014B00221A60704731
:100440004422001008B501F023F8014B186008BDE4
:100450004022001010B501F01BF80E4B18600E4B37
:100460001B68C01A0D4B186000B910BD0C4C00235E
:100470001A461946206800F0A5FA00231A461946C4
:10048000206800F09FFA00231A461946206800F001
:1004900099FAEAE748220010402200104422001096
:1004A0003C220010014B00221A7070474C220010B1
:1004B000014B00221A7070474C22001008B5264BE1
:1004C0001B78032B44D8DFE803F00222092A02F04C
:1004D00076FF58B9204B02221A7007E01F4B1B7899
:1004E000272B04D81D4A13780133137008BD02F07E
:1004F00066FF30B1184B00221A70184B00221A7098
:10050000F0E7154B01221A70FFF79CFFF5E702F0A8
:1005100056FF0028EAD0104B03221A70E6E7104B72
:100520001B78272B04D80E4A137801331370DDE7AC
:1005300002F045FF30B9084B01221A70084B002227
:100540001A70F0E7044B00221A70FFF783FFF5E7FB
:10055000FFF7A8FFCAE700BF4C220010A50000105B
:10056000A60000107047FFFF10B572B6194B1A4A6B
:100570001A600433194A1A60002305E0184A4FF044
:10058000FF3142F823100133072BF7D962B6154B20
:1005900007E003F10C049A6859681868FFF7F5FD45
:1005A0002346114A9342F4D306E01C46596854F896
:1005B000080BFFF7F9FD23460C4A9342F5D302F0EE
:1005C00071FD03F0B5FAFFF7CDFFFFF7C5FE30BFB1
:1005D000FDE700BF003105400010DF10FFF7DF012D
:1005E00080E200E01401001A5001001A7801001A9C
:1005F00070477047092303604FF0FF30704758235E
:1006000003604FF0FF307047022904D909230360CB
:100610004FF0FF30704701207047582303604FF0C0
:10062000FF30704702291FD82DE9F0411D461746BB
:1006300006460024AC4211D201F08BFFB0F1FF3F1F
:10064000F8D004F1010838550D2803D00A2801D04C
:100650004446EFE701F07DFF404603E0132333609B
:100660004FF0FF30BDE8F081132303604FF0FF30FF
:10067000704702290CD870B51D4616460024AC42BE
:1006800004D2305D01F060FF0134F8E7284670BD08
:10069000132303604FF0FF307047FFFF054B1B68CB
:1006A00023B1044B1868014419607047014B024A9A
:1006B0001A60F6E7A8000010A422001038B504461E
:1006C00010F0070F02D020F00704083400F0D8FE25
:1006D000134B1B687BB1134B1B681C4441F6F7722C
:1006E00094420ED8A34210D300F064FF002500F01E
:1006F000BFFC284638BD0C4B23F00703084A1360A3
:10070000E9E700F057FF0025F1E7054A15681D44A9
:10071000044B1C6000F04EFF002DEAD1E7E700BF5C
:10072000AC000010B0200010B800001040B14FF035
:10073000A00383F31188BFF36F8FBFF34F8FFEE7E2
:100740007047436A23B1036B1868C0F10700704714
:100750000020704710B5044601F0A4FCA26BE36BC7
:100760009A4204D0002401F0BFFC204610BD0124B1
:10077000F9E710B5044601F095FCA36B23B90124F9
:1007800001F0B2FC204610BD0024F9E770B5044624
:100790001646856B026C5AB903681BB100200135FF
:1007A000A56370BD406801F04BF900236360F6E774
:1007B0006EB9806803F0E3F9226CA3681344A36068
:1007C0006268934219D32368A3600020E7E7C068FA
:1007D00003F0D5F9226C5242E3681344E3602168C8
:1007E0008B4202D263681A44E260022E01D00020DC
:1007F000D5E725B1013D0020D1E70020CFE700205B
:10080000CDE7026C72B110B5C3681344C36044688D
:10081000A34201D30368C3600C46C168204603F0BD
:10082000AEF910BD704738B5054601F03BFC95F8B0
:10083000454064B203E001F08FF8013C64B2002C43
:1008400008DD6B6A33B105F1240000F0F1FF0028E8
:10085000F3D0F0E7FF2385F8453001F045FC01F0C7
:1008600021FC95F8444064B203E001F075F8013CC6
:1008700064B2002C08DD2B6933B105F1100000F0E3
:10088000D7FF0028F3D0F0E7FF2385F8443001F0CC
:100890002BFC38BD38B5E0B104460D4601F002FC32
:1008A0002168E26B236C03FB021060600020A063F0
:1008B000A160013A02FB0313E360FF2384F8443094
:1008C00084F84530EDB9236963B901F00DFC0120CE
:1008D00038BD4FF0A00383F31188BFF36F8FBFF3D0
:1008E0004F8FFEE704F1100000F0A2FF0028ECD0CB
:1008F000084B4FF080521A60BFF34F8FBFF36F8FDA
:10090000E3E704F1100000F056FB04F1240000F0CE
:1009100052FBDAE704ED00E038B51D46049C0B46B7
:1009200049B92460E063236401212046FFF7B2FF48
:1009300084F84C5038BD2260F4E740B94FF0A00372
:1009400083F31188BFF36F8FBFF34F8FFEE7F0B5CE
:1009500083B0054699B101FB00F017460C465030B4
:10096000FFF7ACFE064638B100903B4600F150025E
:1009700021462846FFF7D0FF304603B0F0BD0020E7
:10098000EBE740B94FF0A00383F31188BFF36F8FFB
:10099000BFF34F8FFEE7884208D24FF0A00383F3E6
:1009A0001188BFF36F8FBFF34F8FFEE710B50C4672
:1009B00002220021FFF7C1FF034600B184631846FD
:1009C00010BDFFFFF0B585B0019278B10446B1B11A
:1009D000022B20D1E26B012A1DD04FF0A00383F33C
:1009E0001188BFF36F8FBFF34F8FFEE74FF0A00367
:1009F00083F31188BFF36F8FBFF34F8FFEE7026C55
:100A0000002AE5D04FF0A00383F31188BFF36F8F66
:100A1000BFF34F8FFEE71E460F4600F0A3FF50B90D
:100A2000019B53B14FF0A00383F31188BFF36F8F85
:100A3000BFF34F8FFEE700253BE0002539E032464B
:100A400039462046FFF7A2FE636A6BB938B13C4BCA
:100A50004FF080521A60BFF34F8FBFF36F8F01F0DA
:100A600043FB012005B0F0BD04F1240000F0E0FEDE
:100A70000028F4D0324B4FF080521A60BFF34F8FF2
:100A8000BFF36F8FEBE701F02FFB0020EAE702A82E
:100A900000F014FF012519E0002384F8443021E020
:100AA000002384F8453023E02046FFF7BCFE00F029
:100AB00081FD01F0F7FAA26BE36B9A42BFD3022EDD
:100AC000BDD0019B002BDED0002DE0D001F00CFB4F
:100AD00000F0D6FC01F0E6FA94F844305BB2B3F1D2
:100AE000FF3FD9D094F845305BB2B3F1FF3FD7D088
:100AF00001F0FAFA01A902A800F0ECFEC8B92046FC
:100B0000FFF728FE0028CFD0019904F1100000F073
:100B10005BFE2046FFF787FE00F04CFD0028C8D1A1
:100B2000074B4FF080521A60BFF34F8FBFF36F8FA8
:100B3000BFE72046FFF777FE00F03CFD002091E77D
:100B400004ED00E02DE9F84378B10446B1B1022B81
:100B500020D1E06B01281DD04FF0A00383F3118852
:100B6000BFF36F8FBFF34F8FFEE74FF0A00383F308
:100B70001188BFF36F8FBFF34F8FFEE7006C002823
:100B8000E5D04FF0A00383F31188BFF36F8FBFF35D
:100B90004F8FFEE71F469046894601F0ADFBEFF30D
:100BA00011864FF0A00383F31188BFF36F8FBFF35B
:100BB0004F8FA26BE36B9A4206D3022F04D0002022
:100BC00086F31188BDE8F88394F845506DB23A4633
:100BD00049462046FFF7DAFDB5F1FF3F05D06B1C13
:100BE0005BB284F845300120EAE7636A0BB9012063
:100BF000E6E704F1240000F01BFE30B1B8F1000F6D
:100C000005D00120C8F80000DAE70120D8E701206C
:100C1000D6E7FFFFF0B585B0019280B10446B9B1C7
:100C20000F4600F09FFEF8B9019BFBB14FF0A00307
:100C300083F31188BFF36F8FBFF34F8FFEE74FF041
:100C4000A00383F31188BFF36F8FBFF34F8FFEE7CD
:100C5000036C002BE4D04FF0A00383F31188BFF3A3
:100C60006F8FBFF34F8FFEE700263EE000263CE08B
:100C700039462046FFF7C5FD013DA563236923B929
:100C800001F032FA012005B0F0BD04F1100000F0CF
:100C9000CFFD0028F4D0354B4FF080521A60BFF3DF
:100CA0004F8FBFF36F8FEBE701F01EFA0020EAE7EA
:100CB00002A800F003FE012621E0002384F844305E
:100CC00029E0002384F845302BE02046FFF7ABFDF8
:100CD00000F070FC09E02046FFF7A5FD00F06AFC7B
:100CE0002046FFF746FD00283DD101F0DBF9A56B5A
:100CF000002DBDD1019B002BD6D0002ED8D001F005
:100D0000F3F900F0BDFB01F0CDF994F844305BB28B
:100D1000B3F1FF3FD1D094F845305BB2B3F1FF3F60
:100D2000CFD001F0E1F901A902A800F0D3FD00281D
:100D3000D1D12046FFF71DFD0028C6D0019904F14E
:100D4000240000F041FD2046FFF76DFD00F032FC6D
:100D50000028CAD1054B4FF080521A60BFF34F8F65
:100D6000BFF36F8FC1E700208DE700BF04ED00E007
:100D700070B584B0019158B10446036C8BB14FF04B
:100D8000A00383F31188BFF36F8FBFF34F8FFEE78C
:100D90004FF0A00383F31188BFF36F8FBFF34F8F22
:100DA000FEE700F0DFFD50B9019B5BB14FF0A003FF
:100DB00083F31188BFF36F8FBFF34F8FFEE70025DA
:100DC0002E4654E000252E4651E0013BA3632368E4
:100DD0003BB123694BB901F087F90125284604B0DE
:100DE00070BD00F0E7FE6060F3E704F1100000F072
:100DF0001FFD0028EFD0464B4FF080521A60BFF322
:100E00004F8FBFF36F8FE6E745B14FF0A00383F339
:100E10001188BFF36F8FBFF34F8FFEE701F064F9C6
:100E2000DCE702A800F04AFD01262AE0002384F84E
:100E3000443032E0002384F8453034E001F032F9E8
:100E4000606800F09FFD054601F04EF93BE020464A
:100E5000FFF7E9FC00F0AEFB09E02046FFF7E3FCFA
:100E600000F0A8FB2046FFF784FC002840D101F0E9
:100E700019F9A36B002BA8D1019B002BC4D0002E25
:100E8000CFD001F031F900F0FBFA01F00BF994F842
:100E900044305BB2B3F1FF3FC8D094F845305BB249
:100EA000B3F1FF3FC6D001F01FF901A902A800F07D
:100EB00011FD0028D1D12046FFF75BFC0028C6D0E9
:100EC0002368002BBAD0019904F1240000F07CFCC7
:100ED0002046FFF7A8FC00F06DFB0028C7D10C4BA3
:100EE0004FF080521A60BFF34F8FBFF36F8FBEE792
:100EF0000DB9002572E701F0D5F82046FFF721FC77
:100F00000146606800F0F6FD01F0EEF8F1E700BF81
:100F100004ED00E040B110B5044601F0C3F8A46B45
:100F200001F0E2F8204610BD4FF0A00383F31188D2
:100F3000BFF36F8FBFF34F8FFEE7FFFF0023072B39
:100F40000CD8074A52F833200AB10133F7E7044AB4
:100F500042F8331002EBC30358607047704700BF7C
:100F60005022001070B504460D46164601F09AF85E
:100F700094F844305BB2B3F1FF3F0DD094F84530A4
:100F80005BB2B3F1FF3F0BD001F0AEF8A36B5BB1E6
:100F90002046FFF748FC70BD002384F84430EDE79D
:100FA000002384F84530EFE73246294604F1240057
:100FB00000F022FCECE700F1080343604FF0FF3241
:100FC0008260C360036100230360704700230361F4
:100FD000704743684B609A688A6051609960086105
:100FE000036801330360704730B40D68B5F1FF3F0B
:100FF00002D000F1080202E0026904E01A465368D8
:101000001C68AC42FAD953684B6099608A605160A1
:10101000086103680133036030BC704703694168AD
:1010200082688A60416851605A68824206D0002214
:1010300002611A68013A1A601868704782685A603B
:10104000F5E7FFFF10B582B00C4601900023009336
:1010500001F028F801992246044803F02BF9009B7F
:10106000002BFCD001F040F802B010BD3048001A4F
:1010700008B5044803F0A4F903492C20FFF7E2FF68
:1010800008BD00BFBC47001AE047001A08B5044875
:1010900003F010F903495020FFF7D4FF08BD00BF4B
:1010A0000048001AE047001A084B1B681B6823B968
:1010B000074B4FF0FF321A607047044B1B68DB6828
:1010C000DB685A68024B1A60704700BFB8200010F6
:1010D0009021001010B50446006BFFF727FB204657
:1010E000FFF724FB10BD2DE9F04781460D4617465A
:1010F0009A46089EDDF824800A9C9200A521206B68
:1011000002F04BFD236B07F18042013A03EB8207AB
:1011100027F00707676400230F2B06D8EA5CE11865
:1011200081F834200AB10133F6E7002384F8433014
:10113000062E00D90626E662266500256565201D77
:10114000FFF744FF04F11800FFF740FF2461C6F1E8
:101150000706A6616462A56584F85C50524649465C
:10116000384600F075FF2060B8F1000F01D0C8F8D4
:101170000040BDE8F087FFFF38B50024062C08D8F2
:1011800004EB840293000E481844FFF714FF013467
:10119000F4E70C4D2846FFF70EFF0B4C2046FFF7F7
:1011A0000AFF0A48FFF707FF0948FFF704FF09484D
:1011B000FFF701FF084B1D60084B1C6038BD00BFE6
:1011C000C020001064210010782100109821001028
:1011D000C4210010B0210010B8200010BC20001065
:1011E00010B5044600F05EFF214A13680133136016
:1011F000204B1B685BB1204B1B686BB91D4B1B68F8
:10120000DA6AE36A9A4207D81A4B1C6004E0194B69
:101210001C601368012B27D0184A13680133136030
:10122000A364E36A01229A401549086802430A60F0
:1012300003EB83039A00211D12481044FFF7C9FEF7
:1012400000F052FF0C4B1B686BB10A4B1B68DA6A4B
:10125000E36A9A4207D20C4B4FF080521A60BFF3F8
:101260004F8FBFF36F8F10BDFFF786FFD4E700BF2E
:101270004C210010B4200010AC2100105C210010A3
:1012800060210010C020001004ED00E00F4B1B682F
:10129000D3B110B500F006FF0D4BDB68DC68201DF4
:1012A000FFF7BCFE0B4A1368013B1360074A136843
:1012B000013B136000F018FF2046FFF70BFF034BC4
:1012C0001B68002BE6D110BD704700BF50210010F5
:1012D000C42100104C21001008B5FFF7D7FF064BC2
:1012E0001B68012BF9D9054B4FF080521A60BFF3F0
:1012F0004F8FBFF36F8FF0E7C020001004ED00E0C8
:1013000070B504460E461D4B1D681D4B1868043011
:10131000FFF784FE50B91A4B1B68DA6A012303FAFF
:1013200002F218490B6823EA02030B60B4F1FF3F95
:101330000DD02C44124B1B685C60A54210D9124B97
:1013400018680F4B19680431FFF74EFE70BD002E70
:10135000EFD00B4B196804310C48FFF73AFEF5E764
:101360000B4B1868064B19680431FFF73DFE094B1B
:101370001B68A342EAD9074B1C60E7E7D82100109D
:10138000B420001060210010BC200010B02100101B
:10139000B8200010902100102DE9F04385B00746D9
:1013A0008846144699469000FFF788F9E8B106464A
:1013B0006020FFF783F9054698B10663D5B1002395
:1013C000039302950D9B01930C9B00934B46224681
:1013D00041463846FFF787FE2846FFF701FF012008
:1013E00005E03046FFF7A2F9E8E74FF0FF3005B01F
:1013F000BDE8F0834FF0FF30F9E7FFFF00B583B0A1
:10140000194B0193002300935A2218491848FFF7FB
:10141000C3FF012807D0012808D0B0F1FF3F1AD040
:1014200003B05DF804FB00F035FCF4E74FF0A003D7
:1014300083F31188BFF36F8FBFF34F8F0D4B4FF0C6
:10144000FF321A600C4B01221A600C4B00221A600A
:1014500000F0CAFEE4E74FF0A00383F31188BFF366
:101460006F8FBFF34F8FFEE78C2100107048001A7A
:10147000D912001A90210010AC210010D8210010C0
:10148000024A136801331360704700BF58210010EF
:10149000014B1868704700BFD8210010F8B53A4BCF
:1014A0001B68002B64D1394B1D6801351D60C5B91F
:1014B000374B1B681B6843B14FF0A00383F31188BF
:1014C000BFF36F8FBFF34F8FFEE7314A1168314B87
:1014D000186810601960304A136801331360FFF711
:1014E000E3FD2E4B1B68AB4238D900242C4B1B6804
:1014F000DB6A03EB83039A002A4B9B58012B3CD9F0
:1015000001243AE00124224B1B681B6843B3204BA3
:101510001B68DB68DE6873689D4226D3371D38463A
:10152000FFF77CFDB36A1BB106F11800FFF776FDEB
:10153000F36A01229A401C49086802430A6003EBDF
:1015400083039A00394617481044FFF742FDF26AB8
:10155000134B1B68DB6A9A42D4D2D4E70024D2E74B
:101560000E4B4FF0FF321A60C0E70C4A1360BDE724
:101570000E4A13680133136000240D4B1B6803B13E
:1015800001242046F8BD00BF58210010D8210010CA
:10159000B8200010BC2000109421001090210010F1
:1015A000B4200010C0200010602100105421001051
:1015B000DC21001038B5354B1B6843B94FF0A00350
:1015C00083F31188BFF36F8FBFF34F8FFEE700F0F7
:1015D00069FD2E4B1A68013A1A601B68002B4DD129
:1015E0002B4B1B680BB9002449E00024294B1B68D6
:1015F0001BB3284BDB68DC6804F11800FFF70EFD15
:10160000251D2846FFF70AFDE36A01229A40224978
:10161000086802430A6003EB83039A0029461F48C7
:101620001044FFF7D6FCE26A1D4B1B68DB6A9A4246
:10163000DCD31C4B01221A60D8E70CB1FFF734FD54
:10164000194B1C6874B9174B1B68E3B1174B4FF06B
:1016500080521A60BFF34F8FBFF36F8F01240EE0EB
:10166000013C07D0FFF71AFF0028F9D00D4B0122EB
:101670001A60F5E70C4B00221A60E4E7002400F042
:1016800033FD204638BD0024F9E700BF5821001083
:101690004C2100109821001060210010C020001083
:1016A000B4200010DC2100105421001004ED00E0F3
:1016B00010B5A8B104460F4B1B6843B14FF0A0030F
:1016C00083F31188BFF36F8FBFF34F8FFEE7FFF7F0
:1016D000D7FE00212046FFF713FEFFF76BFF38B956
:1016E000054B4FF080521A60BFF34F8FBFF36F8FDF
:1016F00010BD00BF5821001004ED00E02D4B1B6809
:101700001BB12D4B01221A60704710B52A4B0022E5
:101710001A602A4B1B681B6B1A68B2F1A53F03D1F4
:101720005A68B2F1A53F1BD0244B186819683431B0
:10173000FFF7ACFC224B1B68B3FA83F3DBB2C3F1B7
:101740001F0303EB83018A001E498A588AB94FF0B0
:10175000A00383F31188BFF36F8FBFF34F8FFEE7B2
:101760009A68B2F1A53FDFD1DB68B3F1A53FDBD1C9
:10177000E0E714489A00D418A10001444C6864685A
:101780004C601A44910008310844844209D003EBAC
:1017900083039A000B4B13445B68DA68074B1A60AB
:1017A00010BD606803EB83029100064A0A44506052
:1017B000EDE700BF58210010DC210010B42000101C
:1017C00060210010C020001058B110B50C46094B24
:1017D00019681831FFF708FC01212046FFF790FD3A
:1017E00010BD4FF0A00383F31188BFF36F8FBFF3D9
:1017F0004F8FFEE7B420001038B570B10C46154687
:101800000A4A11681831FFF7E4FB0DB14FF0FF34BD
:1018100029462046FFF774FD38BD4FF0A00383F33F
:101820001188BFF36F8FBFF34F8FFEE7B420001016
:1018300038B5C368DC6824B304F118052846FFF7FF
:10184000EDFB184B1B682BBB251D2846FFF7E6FB5D
:10185000E36A01229A401449086802430A6003EBD4
:1018600083039A00294611481044FFF7B2FBE26A4D
:101870000F4B1B68DB6A9A4211D901200D4B18608F
:101880000EE04FF0A00383F31188BFF36F8FBFF317
:101890004F8FFEE729460848FFF79BFBE7E700204C
:1018A00038BD00BF5821001060210010C02000107A
:1018B000B4200010DC21001098210010034B1B689D
:1018C0000360034B1B684360704700BF9421001006
:1018D000D8210010F8B5C8B1054601B30C4600F098
:1018E000E1FB1B4B19686B68C81A2268B2F1FF3F15
:1018F00026D02F68174E3668B74201D08B4224D9C4
:10190000824215D80023236001241AE04FF0A0037F
:1019100083F31188BFF36F8FBFF34F8FFEE74FF054
:10192000A00383F31188BFF36F8FBFF34F8FFEE7E0
:101930005B1A134423602846FFF7C0FF002400E031
:10194000002400F0D1FB2046F8BD0124F9E700BFD8
:10195000D821001094210010014B01221A60704719
:10196000DC210010054B1B6833B1054B1B680BB124
:10197000002070470220704701207047AC21001002
:1019800058210010002850D038B50446C26A2949B1
:101990000968C96A8A4240D28169002905DB254964
:1019A0000968C96AC1F107018161606902EB8202BD
:1019B0009100214A0A44904205D01E4A1268D26A18
:1019C000E262012038BD251D2846FFF727FBA0B1A4
:1019D000184B1B68DB6AE362012404FA03F217491F
:1019E000086802430A6003EB83039A002946124801
:1019F0001044FFF7EEFA2046E4E7E36A03EB8301C5
:101A00008A000D498A58002AE2D101229A400B49E6
:101A10000B6823EA02030B60DAE7026D054B1B68D3
:101A2000DB6A9A4203D30020CCE7002070470120F4
:101A3000C8E700BFB4200010C020001060210010D3
:101A400000284CD038B50446274A1268824208D094
:101A50004FF0A00383F31188BFF36F8FBFF34F8F55
:101A6000FEE7426D42B94FF0A00383F31188BFF344
:101A70006F8FBFF34F8FFEE7013A4265C06A216D59
:101A800088422ED00AB1002038BD251D2846FFF718
:101A9000C5FA70B9E26A02EB82018B001349CB5898
:101AA0003BB9012303FA02F211490B6823EA02034E
:101AB0000B60236DE362C3F10702A261012404FA03
:101AC00003F20B49086802430A6003EB83039A00A0
:101AD000294606481044FFF77CFA2046D4E7002048
:101AE00070470020D0E700BFB4200010C0200010D5
:101AF00060210010002856D038B50446406D40B92A
:101B00004FF0A00383F31188BFF36F8FBFF34F8FA4
:101B1000FEE7226D8A4200D20A46E16A914201D074
:101B2000012800D038BD20480068A04232D0E262CF
:101B3000A069002802DBC2F10702A261636901EB20
:101B400081018800194A02449342EBD1251D2846A1
:101B5000FFF764FA70B9E26A02EB82018B00134965
:101B6000CB583BB9012303FA02F211490B6823EA6F
:101B700002030B60E36A01229A400D4908680243A0
:101B80000A6003EB83039A00294608481044FFF7D4
:101B900020FAC7E74FF0A00383F31188BFF36F8FDC
:101BA000BFF34F8FFEE77047B4200010C020001035
:101BB00060210010054B1B6823B1044B1A68536D5C
:101BC00001335365014B1868704700BFB420001003
:101BD000064B1A681368B3FA83F35B09036013B901
:101BE000D368186870470020704700BFE0210010DC
:101BF00008B54160006191420CD8D21A83699A42BB
:101C000001D3012008BD011D094B1868FFF7ECF94D
:101C10000020F7E79A4201D2994206D2011D054BF6
:101C20001868FFF7E1F90020ECE70120EAE700BFC0
:101C3000E4210010E021001038B500F033FA0F4B1A
:101C40001B6813B100F050FA38BD0D4D2846FFF760
:101C5000B2F90C4C2046FFF7AEF90B4B1D600B4B55
:101C60001C60002210210A20FEF767FE034B18605B
:101C70000028E7D00649FFF761F9E3E714220010D6
:101C8000E8210010FC210010E0210010E4210010E8
:101C90007848001A00B583B0FFF7CEFF0D4B1B68E4
:101CA0005BB10D4B01930423009300234FF4B472F6
:101CB0000A490B48FFF770FB40B94FF0A00383F3CC
:101CC0001188BFF36F8FBFF34F8FFEE703B05DF84E
:101CD00004FB00BF14220010182200108048001AD4
:101CE000BD1F001AC0B130B585B015460446174A6D
:101CF000106840B31A4600910195029405291CDC36
:101D0000FFF730FE022810D000231A4669460F481C
:101D10000068FEF757FE14E04FF0A00383F311882C
:101D2000BFF36F8FBFF34F8FFEE70023089A69461A
:101D300006480068FEF746FE03E000236946FEF70A
:101D400001FF05B030BD0020FBE700BF14220010EA
:101D500070B582B01A4B1B681A6852B3DB681E68F4
:101D6000DC68251D2846FFF759F9636A2046984725
:101D7000E369012BEED1A36933449E4207D263602D
:101D8000246129460E4B1868FFF72EF9E2E700217F
:101D900000910B4632462046FFF7A4FF0028D9D118
:101DA0004FF0A00383F31188BFF36F8FBFF34F8F02
:101DB000FEE7044A106802490860136002B070BD73
:101DC000E0210010E421001038B50546FFF760FB64
:101DD0000446074B1B68834205D800232B60044B45
:101DE0001C60204638BDFFF7B3FF01232B60F6E7E8
:101DF0001022001070B582B005460E46144B1B68C9
:101E0000DB68DC68201DFFF709F9E369012B04D0CA
:101E1000636A2046984702B070BDA1692B463246DE
:101E200029442046FFF7E4FE0028F1D0002100916C
:101E30000B462A462046FFF755FF0028E8D14FF011
:101E4000A00383F31188BFF36F8FBFF34F8FFEE7BB
:101E5000E021001070B582B006460C46FFF710FB7B
:101E600001A8FFF7B1FF019B1BBB05460CB9B042AF
:101E700018D22CB1114B1B681C68B4FA84F46409A5
:101E80002246711B0E4B1868FFF76CF8FFF792FBA8
:101E900088B90C4B4FF080521A60BFF34F8FBFF3DD
:101EA0006F8F08E0FFF786FB29463046FFF7A2FF59
:101EB00001E0FFF77FFB02B070BD00BFE42100101E
:101EC0001422001004ED00E030B589B006E0079957
:101ED0000698059B9847049B002B0BDA002204A967
:101EE000354B1868FEF796FE002862D0049B002B45
:101EF000F1DAECE7069C636913B1201DFFF78EF859
:101F000003A8FFF761FF049B092BE7D801A252F851
:101F100023F000BF3D1F001A3D1F001A3D1F001A8D
:101F2000DD1E001A851F001AAB1F001A3D1F001A84
:101F30003D1F001ADD1E001A851F001A0599A569AC
:101F40000B46024629442046FFF752FE0028C5D022
:101F5000636A20469847E369012BBFD1A26900213B
:101F600000910B46059802442046FFF7BBFE00286F
:101F7000B4D14FF0A00383F31188BFF36F8FBFF389
:101F80004F8FFEE70599A16131B103460246014436
:101F90002046FFF72DFEA1E74FF0A00383F3118841
:101FA000BFF36F8FBFF34F8FFEE72046FEF7BEFBF8
:101FB00094E709B030BD00BF1422001000B583B013
:101FC00001A8FFF705FE0199FFF744FFFFF77CFF2B
:101FD000F6E7FFFF82B0002301930D4B1B68B3F1BE
:101FE000FF3F08D04FF0A00383F31188BFF36F8F3A
:101FF000BFF34F8FFEE74FF0A00383F31188BFF3C9
:102000006F8FBFF34F8F019B002BFCD002B0704746
:102010000000001008480068006880F308884FF04E
:10202000000080F3148862B661B6BFF34F8FBFF330
:102030006F8F00DF00BF000008ED00E0DFF80C004C
:10204000016841F4700101607047000088ED00E014
:102050004FF0807340F8043C21F0010140F8081C67
:10206000054B40F80C3C40F8202C6FF0020340F880
:10207000243C4438704700BFD51F001AFFFFFFFF04
:10208000074B19680868B0E8F04F80F30988BFF380
:102090006F8F4FF0000080F311887047AFF300801E
:1020A000B42000104FF0A00383F31188BFF36F8FAB
:1020B000BFF34F8F0A4A136801331360012B00D01E
:1020C0007047084B1B6813F0FF0FF9D04FF0A003C7
:1020D00083F31188BFF36F8FBFF34F8FFEE700BF0D
:1020E0000000001004ED00E0094B1B6843B94FF0FD
:1020F000A00383F31188BFF36F8FBFF34F8FFEE709
:10210000013B034A13600BB983F31188704700BF8A
:1021100000000010FFFFFFFFFFFFFFFFFFFFFFFFBB
:10212000EFF30980BFF36F8F154B1A681EF0100F85
:1021300008BF20ED108A20E9F04F10602DE909005A
:102140004FF0A00080F31188BFF34F8FBFF36F8F64
:10215000FFF7D4FA4FF0000080F3118809BC19682A
:102160000868B0E8F04F1EF0100F08BFB0EC108AFE
:1021700080F30988BFF36F8F704700BFAFF3008013
:10218000B420001008B54FF0A00383F31188BFF30B
:102190006F8FBFF34F8FFFF781F918B1034B4FF0EB
:1021A00080521A60002383F3118808BD04ED00E01B
:1021B000084A0023136008490B60084B1B68084954
:1021C000A1FB03139B09013B06490B600723136026
:1021D000704700BF10E000E018E000E0902200101F
:1021E000D34D621014E000E03A4B1A683A4B9A4221
:1021F00029D0384B1A68394B9A422DD010B582B08D
:10220000374B1A78D2B20192FF221A701B78DBB2D8
:102210008DF803309DF8033003F0A003314A1370AA
:10222000314B07221A609DF8033013F0800F1CD049
:102230002D4A1368013B13609DF803305B00DBB24D
:102240008DF80330EFE74FF0A00383F31188BFF35D
:102250006F8FBFF34F8FFEE74FF0A00383F311881A
:10226000BFF36F8FBFF34F8FFEE71F4B1B68042B2D
:1022700008D04FF0A00383F31188BFF36F8FBFF333
:102280004F8FFEE71B0203F4E063174A1360019BC4
:10229000DBB2134A1370154B1A6842F460021A60DD
:1022A0001A6842F060421A60FFF782FF0024104B68
:1022B0001C60FFF7C3FE0F4A136843F040431360EE
:1022C000FFF7A8FEFFF71AFAFFF784FE204602B0D8
:1022D00010BD00BF00ED00E071C20F4170C20F41A0
:1022E00000E400E01C2200102022001020ED00E09D
:1022F0000000001034EF00E0EFF305830F2B0FD93F
:10230000104A9B5CDBB2104A12789A4208D94FF00F
:10231000A00383F31188BFF36F8FBFF34F8FFEE7E6
:102320000A4B1B6803F4E063094A1268934208D918
:102330004FF0A00383F31188BFF36F8FBFF34F8F6C
:10234000FEE77047F0E300E01C2200100CED00E017
:102350002022001008B5054B0122C3F88021044B50
:102360001B6813B1024B1B68984708BD00E100E0F1
:10237000242200100022052A19D870B40C4911F843
:10238000125001EB42014C780A4B05F5006653F8F8
:1023900026100120A040014343F8261003EB45130B
:1023A000002119550132052AE8D970BC70477047E1
:1023B0009448001A00400F400023032B16D830B475
:1023C0000B4911F8132001EB43014D78094C02F53C
:1023D000006254F822100120A84021EA000144F8CC
:1023E00022100133032BEBD930BC7047704700BF7C
:1023F0008C48001A00400F400023082B16D830B438
:102400000B4911F8132001EB43014D78094C02F5FB
:10241000006254F822100120A84021EA000144F88B
:1024200022100133082BEBD930BC7047704700BF36
:10243000A048001A00400F4010B582B0084C694611
:10244000204600F017FA074A6946204600F032FAA3
:1024500000226946204600F046FA02B010BD00BFD7
:1024600000300E40801A060010B50B4C204600F0DC
:10247000FDFD636823F004036360236823F0FF031A
:1024800043F0070323600549204600F0D0FD636850
:1024900043F00203636010BD00500C40A0860100B1
:1024A00008B5002000F0C6F8044B40F60802C3F857
:1024B000842C0349002000F0CFF808BD00600840DC
:1024C00040420F0010B5074C204600F0F7F84FF4DB
:1024D000E131204600F03CF90323E3600123E3658A
:1024E00010BD00BF00100C40034B5B6913F0200FC0
:1024F000FAD0014B1860704700100C40054B5B6927
:1025000013F0010F03D0034B1868C0B270474FF0AF
:10251000FF30704700100C4008B5FFF7D3FF0948A3
:1025200000F0B8FCFFF768FFFFF786FFFFF79CFF9E
:10253000FFF7B6FFFFF71EFFFFF73EFF00F0DAF9E7
:1025400008BD00BF00400F4008B5C0B2FFF7CCFF88
:1025500008BD08B5FFF7D2FF08BD08B5FFF7B2FF09
:1025600008BDFFFF00231C2B12D810B4094A02EB50
:10257000830112F823404A78488802EB4412064946
:1025800041F8220001331C2BF0D95DF8044B704751
:10259000704700BFBC48001A0060084010B5174AD9
:1025A000D2F8203123F4704343F41043C2F82031B1
:1025B000D2F8243123F4704343F41043C2F8243199
:1025C00001220F49062000F067FC00244CB10B4BA0
:1025D0005A6822F00C025A605A6842F003025A60AC
:1025E00010BD084800EB840101238A78497810F86F
:1025F000240000F0ABFB0134E8E700BF00300440EA
:1026000000CB280CB848001A08B5FFF7ABFFFFF75E
:10261000C5FF08BD012909D1C0EBC0008200044BF1
:1026200013441A69137DDBB2042BFBD0704700BF43
:102630000400001070B50546064EC400221A93002F
:102640003344988800F0E6FB641BA300F3586C2227
:102650009A6170BD040000102DE9F0410C460B4E4C
:10266000C5002B1A4FEA830806EB0803988800F090
:10267000EBFBB0FBF4F056F8083042081A6156F84C
:1026800008301A69801A5861BDE8F0810400001012
:10269000094B984209D003F58053984207D0A3F51F
:1026A0008023984205D00020704702207047032005
:1026B00070470120704700BF00100C4030B583B058
:1026C0000446FFF7E5FF01231A4619460E4D35F87B
:1026D000100000F081FB0723A3600023E365636023
:1026E000E3602362E36463652365084B9C4206D084
:1026F0000323E3601023A362019B03B030BD0023DA
:102700002361A3690193F3E73849001A00200840C8
:1027100038B505460C46FFF7BBFF0C4B33F81000ED
:1027200000F092FB2301B0FBF3F3D9B2EA6842F068
:102730008002EA602960C3F307226A60EA6822F037
:102740008002EA60B0FBF3F0000938BD3049001A9E
:102750002DE9F04F83B001908846FFF799FF324B87
:1027600033F8100000F070FB06464FF0FF370124ED
:102770004FF0000BA246D9462AE042424B1C17E01C
:102780000AB31746AB46A24699460135AC421ED95C
:1027900033093007A4FB000104FB0311621908FB95
:1027A00002F2002300F08CFE02460B460028E4DB18
:1027B0009742EAD3002BE8D0190CE6D1022BDFD8E0
:1027C000002DDDD0E1E71746AB46A246994601341D
:1027D0001FB10F2C01D80025D8E7B9F1000F1ED08A
:1027E000019A1146D36843F08003D3605FFA89F3FE
:1027F0001360C9F307235360D36823F08003D360C9
:102800004FEA0A13DBB20BF00F0213438B6233095A
:102810000AFB03F3DA4409FB0AF9B3FBF9F948466A
:1028200003B0BDE8F08F00BF3049001A034B984257
:1028300001D0032070470420704700BF00400E40C5
:1028400070B50D4614461E46FFF7F0FF00F0FCFA87
:1028500055B104FB06F404EB40006400B0FBF4F057
:10286000C0B20138C0B270BD04EB840304EB430472
:10287000F1E7FFFF38B505460C46FFF7D7FF012308
:102880001A46194600F0A8FA0021E960084A2260B9
:10289000217161710B232846FFF7D2FF000240F43B
:1028A00000132079400400F460201843286038BDEC
:1028B000801A060070B505460E46046824F46F249D
:1028C00024F470640A600B79C3F10B03DBB249791D
:1028D000FFF7B6FF44EA002033795B0403F460237A
:1028E00003432B6070BD08B50A710A68FFF7E2FF69
:1028F00008BDFFFF08B5692000F0A6FA014B18607B
:1029000008BD00BF90220010F0B40B6813F0800FD8
:1029100002D023F040030B60074601253AE04B69E3
:1029200003FB02F3B3FBF5F31CE01C46B0EB040C15
:1029300027D4674506D98D60771CCF600A618C610A
:10294000CB6167460132B2F5807F1DDC0C6814F064
:10295000400FE4D0731C02FA03FC4B6903FB0CF339
:10296000B3FBF5F3DFF838C06345EBD9DFF834C0CB
:10297000634509D814F0800FD7D1741C23FA04F4EE
:10298000D4E7CCF1000CD4E70136032E01DC0122A0
:10299000D9E70135042D01DC0026F6E7F0BC7047CD
:1029A000FF5E4C0900D01213F0B599B005460C46F5
:1029B0005C22002101A801F0F0F8802300936369F4
:1029C000059323798DF8043069462846FFF79CFF6C
:1029D000069BAB4227D0EB1A2ED41E46109B23F049
:1029E000400310936369159323798DF8443010A93F
:1029F0002846FFF789FF169BAB421FD0EB1A25D460
:102A00001F462B4B9D4223D90E9BED1A33D4AE4269
:102A10003BDCBE4231DC6D460FCD0FC495E80F00A4
:102A200084E80F0006E06D460FCD0FC495E80F0057
:102A300084E80F0019B0F0BD5B42CEE710AD0FCDBA
:102A40000FC495E80F0084E80F00F3E75B42D7E777
:102A50004023089363690D9308A92846FFF754FFA4
:102A60000E9BAB42D0D108AD0FCD0FC495E80F003F
:102A700084E80F00DEE76D42C9E710AD0FCD0FC44B
:102A800095E80F0084E80F00D4E7AF4207DB08ADFC
:102A90000FCD0FC495E80F0084E80F00CAE710AD12
:102AA0000FCD0FC495E80F0084E80F00C2E700BF08
:102AB00080778E0630B4054600231C2000E00133E9
:102AC0001C2818D103EB430251000C4A0A44147924
:102AD000844210D003EB43014A0008498A5AAA42B3
:102AE000EDD803EB43025100044A0A445288AA423B
:102AF000E5D32046E4E730BC704700BF4C49001ADC
:102B000082B04FF47A7301930D4A936923F0020166
:102B100092698A4201D00A4A916123F00303094A6B
:102B20001168094A914201D943F00403044A9361B0
:102B3000019B5A1E0192002BFAD102B0704700BFD0
:102B400000000540B448001AFF2C31011230054B3B
:102B500053F8200010F0010F02D1C0F30460704759
:102B6000112070470000054000F11202034B53F89A
:102B70002220034B185C00EA9200704700000540D9
:102B80004449001A08B510280AD8DFE800F0440BC1
:102B90000D18210924272A2D09093034383C40001A
:102BA00000203AE01E4838E01E4BD3F82C3103F0E9
:102BB0000703042B01D01C482FE000202DE0194B07
:102BC000D3F82C3103F00703042B27D0164824E058
:102BD000164B186821E0164B18681EE0154B186854
:102BE0001BE0144B586818E000F068F815E000216D
:102BF00000F09AF811E0012100F096F80DE00221B2
:102C000000F092F809E0032100F08EF805E00421BD
:102C100000F08AF801E04FF4004008BD0648FCE7E8
:102C2000001BB7000030044040787D018848001A3E
:102C3000B448001A2822001080F0FA0238B5054680
:102C40000C460879FFF79EFF6061194B2B44194A27
:102C5000934221D818B3802323600023A360E3604C
:102C6000B5FBF0F32361144A954203D903FB00F04E
:102C7000A84207D021462846FFF796FEA3688BB1ED
:102C8000013BA360236983B1E2680AB1013AE260C3
:102C9000013B2361002038BD4FF0FF30FBE74FF0D0
:102CA000FF30F8E74FF0FF30F5E74FF0FF30F2E785
:102CB000103A6BFF1005940BFF5E4C0930B583B0E2
:102CC000174D6C6CC4F30360FFF75CFF154B1B687A
:102CD00001932B6C13F0010F20D0C4F30743C4F30E
:102CE0000132C4F30121C4F38015013301320DF127
:102CF000080C614411F8041C14F0800F08D13DB990
:102D00004900B3FBF1F3B0FBF2F000FB03F003E08A
:102D1000B0FBF2F003FB00F003B030BD0020FBE796
:102D2000000005404049001A38B50C460846FFF738
:102D30000DFF05462046FFF717FF04462846FFF71C
:102D400021FF0134B0FBF4F038BDFFFF30B400F1D7
:102D50001604A40004F1804404F5A02464681B2830
:102D600013D811291AD00E4D25400AB145F400653B
:102D70000BB145F0010545EA01651630800000F110
:102D8000804000F5A020456008E044F001041630C2
:102D9000800000F1804000F5A020446030BC704706
:102DA000FEF7FFE01B280CD81630800000F18040B1
:102DB00000F5A020406810F0010F04D1C0F30460BA
:102DC0007047112070471120704708B5FFF7EAFFE0
:102DD000FFF7D8FE08BDFFFF71B901210AB141F02C
:102DE0000401022B0AD0B0F5A17F0AD3A0F591709F
:102DF000064B43F8301070470321EFE741F0200104
:102E0000F1E72030024B43F83010704700200540B6
:102E100000100540B0F5A17F09D3094AA0F59170D3
:102E200052F8303043F0010342F830307047054A21
:102E3000203052F8303043F0010342F83030704710
:102E4000002005400010054010B5B0F5A17F09D362
:102E5000A0F591730D4A52F8334014F0010F07D1D9
:102E6000002010BD00F12003094A52F83340F4E776
:102E7000FFF720FEFFF7A9FF14F0E00F03D10123B5
:102E8000B0FBF3F0EDE70223FAE700BF00200540B6
:102E9000001005407047FFFF70B58AB005460E462A
:102EA00014464CF250330993062818D0002301220F
:102EB00029460420FFF74AFF4A4A536C43F00103B6
:102EC00053648DF8085001A93046FFF7B7FE464B12
:102ED0009E4216D9019B13F0400F03D0FEE7FFF787
:102EE0000FFEE3E713F0800F05D023F0800301937A
:102EF0000025012607E0049B0133049301250026E9
:102F000001E000252E469DF80820019B43EA02635C
:102F1000059A43EA0243039A43EA0233049A43EAD6
:102F2000022343F400632F4A53642E4B1B6C13F0AF
:102F3000010FFAD00023012209210420FFF706FF28
:102F400006B34CF250330993099B5A1E0992002B89
:102F5000FAD1019B43F0800301939DF8082043EAD6
:102F60000263059A43EA0243039A43EA0233049A4E
:102F700043EA022343F400631A4A5364002C2ED11F
:102F80000AB070BD002DF9D04CF250330993099B63
:102F90005A1E0992002BFAD1049B5A1E04929DF8E6
:102FA0000810019B43EA0163059943EA0143039931
:102FB00043EA013343EA022343F40063094A5364BA
:102FC000DCE70A4800EB8401CB788A78497810F86E
:102FD0002400FFF7BBFE0134112CF2D9D0E7002406
:102FE000FAE700BF0000054080778E06B849001A56
:102FF000034B984201D083207047A520704700BF43
:1030000000500C40044B984202D040F2022070471E
:103010004FF4F170704700BF00500C40036823F478
:103020007F43090289B2194301600261704770B59C
:1030300006460D46FFF7E6FFFFF706FF02224FF0B8
:10304000FF33002100E02146AB420BD94C1C02FBB0
:1030500004F3B0FBF3F39D42F6D2FF2CF3D9023216
:103060000021F1E73046FFF7D9FF70BD10B50446E7
:10307000FFF7BEFFFFF7CEFE2046FFF7C3FFFFF7C7
:10308000C9FE636823F004036360236823F0FF0331
:1030900043F00703236002492046FFF7C8FF10BD35
:1030A000A086010008B50B4A0B4B9A6003F50C7320
:1030B0001B6903F47F63202B04D0FFF7A5FAFFF709
:1030C0002BFA08BD044AD2F8883043F47003C2F8E2
:1030D0008830F2E70000001A00ED00E0044B1860B1
:1030E000044A136843F0010313600120704700BFD6
:1030F0003C000010001000E02DE9F84380468946AE
:10310000194C45002A189300E618E7583846FFF78F
:10311000D5FA49463846FFF7FBFA0723BB603B6800
:103120000123FB6530797379B27942F018020F49B7
:1031300003EB401341F82320F079337A727A42F09E
:10314000D00203EB401341F82320B8F1010F01D066
:10315000BDE8F883064AD36C43F03003D3641A22E7
:10316000C1F80823F4E700BF004A001A00600840D5
:103170000010084030B40B4D00EB80002C1828568E
:10318000087094F90110117094F902201A7094F9E2
:103190000320029B1A7094F90420039B1A7030BC20
:1031A000704700BF484A001A10F1020F00F0C780B4
:1031B000B0F1FF3F00F0C58070B584B00C4600232D
:1031C0008DF80F308DF80E308DF80D308DF80C30F5
:1031D0008DF80B300DF10B03019303AB00930DF150
:1031E0000D030DF10E020DF10F01FFF7C3FF052CCA
:1031F00000F2A980DFE804F0098127456303534802
:10320000FFF748FE012004B070BD9DF80F109DF837
:103210000E309DF80D2042F0D00203EB41134C49D3
:1032200041F823209DF80C309DF90B20012000FA75
:1032300002F1464C03F5006354F8232022EA010210
:1032400044F82320DFE79DF80F109DF80E309DF81D
:103250000D2042F0C00203EB41133D4941F8232009
:103260009DF80C309DF90B20012000FA02F1374C3B
:1032700003F5006354F8232022EA010244F82320D6
:10328000C1E79DF80F109DF80E309DF80D2042F01B
:10329000D80203EB41132E4941F823209DF80C304E
:1032A0009DF90B20012000FA02F1284C03F5006380
:1032B00054F8232022EA010244F82320A3E79DF8D2
:1032C0000F109DF80E309DF80D2042F0C80203EB60
:1032D00041131F4941F823209DF80C309DF90B2024
:1032E000012000FA02F1194C03F5006354F8232081
:1032F00022EA010244F8232085E79DF80F109DF88B
:103300000E309DF80D2042F0D00203EB411310491E
:1033100041F823209DF80C409DF90B20012000FA74
:1033200002F10A4B04F5006553F82560314343F878
:103330002510D2B203EB44130021995463E7002017
:1033400070470020704700205DE700BF00400F403D
:103350000060084010F1020F2DD0B0F1FF3F2CD0DB
:1033600010B584B00C4600238DF80F308DF80E3068
:103370008DF80D308DF80C308DF80B300DF10B03FE
:10338000019303AB00930DF10D030DF10E020DF14E
:103390000F01FFF7EFFE9DF80C309DF80B20211C6C
:1033A00018BF01215B0103F1402303F570239954F9
:1033B000012004B010BD002070470020704710F1BC
:1033C000020F2CD0B0F1FF3F2BD000B585B0002309
:1033D0008DF80F308DF80E308DF80D308DF80C30E3
:1033E0008DF80B300DF10B03019303AB00930DF13E
:1033F0000D030DF10E020DF10F01FFF7BBFE9DF95C
:103400000C309DF80B205B0103F1402303F5702382
:10341000985C003018BF012005B05DF804FB012066
:10342000704700207047FFFF08B5044B1B681B68FE
:10343000DB68034A1068984708BD00BF942200105B
:103440003022001008B5FFF755FA184B1868FFF73F
:1034500045FE05210020FFF7A7FE00212420FFF7ED
:10346000A3FE00212520FFF79FFE00212620FFF765
:103470009BFE00212720FFF797FE01212820FFF760
:1034800093FE01212920FFF78FFE01212A20FFF75B
:103490008BFE01212B20FFF787FE01212C20FFF757
:1034A00083FE01212D20FFF77FFE08BD9022001032
:1034B00008B50B46017011461846FFF71DFE08BD02
:1034C00053B94AB9002908BF00281CBF4FF0FF318B
:1034D0004FF0FF3000F074B9ADF1080C6DE904CE87
:1034E00000F006F8DDF804E0DDE9022304B07047DF
:1034F0002DE9F047089E04468846002B40F0858061
:103500008A42154648D9B2FA82F24AB1C2F120077E
:1035100001FA02F320FA07F7954047EA03089440BE
:103520004FEA154E230CB8FBFEF71FFA85FC0EFB85
:10353000178843EA084307FB0CF1994209D9EB18B5
:1035400007F1FF3080F0E380994240F2E080023FD3
:103550002B445B1AA4B2B3FBFEF00EFB103344EA1B
:10356000034400FB0CFCA44509D92C1900F1FF33DE
:1035700080F0CB80A44540F2C88002382C4440EA59
:103580000740A4EB0C0400271EB1D4400023C6E979
:1035900000433946BDE8F087002A53D0B2FA82F2E0
:1035A000002A40F0B680491B4FEA154E1FFA85F8F5
:1035B0000127B1FBFEFC230C0EFB1C1143EA014367
:1035C00008FB0CF1994207D9EB180CF1FF3002D23D
:1035D000994200F2EC808446591AA3B2B1FBFEF086
:1035E0000EFB101443EA044408FB00F8A04507D979
:1035F0002C1900F1FF3302D2A04500F2DC801846FE
:10360000A4EB080440EA0C40BEE78B4208D9002E28
:1036100078D00027C6E9000138463946BDE8F08772
:10362000B3FA83F77FB98B4202D3824200F2BD80A6
:10363000841A61EB030301209846002EA9D0C6E945
:103640000048A6E7FFDEC7F12005BB4022FA05FCD3
:103650004CEA030C01FA07F420FA05F821FA05F305
:103660004FEA1C4E48EA0404B3FBFEF9210C0EFBA2
:1036700019331FFA8CF841EA034309FB08FA9A450B
:1036800002FA07F200FA07F10BD91CEB030309F168
:10369000FF3080F088809A4540F28580A9F10209C8
:1036A0006344A3EB0A03A4B2B3FBFEF00EFB10339A
:1036B00044EA034400FB08F8A04508D91CEB0404C5
:1036C00000F1FF336BD2A04569D90238644440EA67
:1036D0000940A4EB0804A0FB02894C45C6464B46B2
:1036E00054D351D0002E69D0B1EB0E0264EB030429
:1036F00004FA05F522FA07F3FC401D43C6E900541D
:10370000002746E73746304643E7184637E707467F
:103710001FE7C2F1200320FA03F7954001FA02F0F7
:1037200021FA03F34FEA154E3843010CB3FBFEF7C1
:103730001FFA85F80EFB173341EA034107FB08F334
:103740008B4204FA02F407D9691807F1FF3C28D22A
:103750008B4226D9023F2944CB1A81B2B3FBFEF03B
:103760000EFB103341EA034100FB08F38B4207D9FB
:10377000691800F1FF3C10D28B420ED9023829445F
:10378000C91A40EA074714E74145ABD2B8EB020E2D
:1037900069EB0C0201381346A4E76046F0E71846CF
:1037A00095E76746D8E781467BE7384645E7ACF1C1
:1037B000020C2B4410E702382C4421E73746E8E698
:1037C000704700BF8A892DE9F041054610070C4675
:1037D00058D44B68002B05DC0B6C002B02DC00205E
:1037E000BDE8F081E66A002EF9D0002312F4805281
:1037F0002F682B6032D0606DA3895A0705D56368A6
:10380000C01A636B0BB1236CC01A00230246E66A30
:10381000216A2846B047431CA38906D129681D297F
:1038200049D82A4ACA40D60745D500226260D90441
:103830002269226004D5421C01D12B6803B960655E
:10384000616B2F600029CAD004F14403994202D071
:10385000284600F0ABF900206063C1E7216A01232C
:103860002846B047411CC7D12B68002BC4D01D2B64
:1038700001D0162B01D12F60B1E7A38943F040039B
:10388000A381ADE70F69002FA9D093070E6808BF89
:103890004B690F6018BF0023A6EB07088B60B8F1D7
:1038A000000F9CDD43463A46216AA66A2846B04787
:1038B000002806DCA38943F04003A3814FF0FF30CA
:1038C0008EE70744A8EB0008E9E700BF01004020AD
:1038D00038B50B6905460C4613B90025284638BD96
:1038E00018B183690BB900F087F8144B9C421BD1C7
:1038F0006C68B4F90C30002BEFD0626ED00704D4A2
:10390000990502D4A06D00F038F928462146FFF74A
:1039100059FF636EDA070546E0D4A3899B05DDD421
:10392000A06D00F02BF9D9E7054B9C4201D1AC68A2
:10393000DFE7044B9C4208BFEC68DAE7504B001A03
:10394000704B001A304B001A002310B50446C0E932
:103950000033836081814366C281C0E9043383619F
:10396000194608225C3000F018F9054B6362054BDC
:10397000A362054BE362054B2462236310BD00BFC5
:10398000D143001AF343001A2B44001A4F44001A83
:10399000014900F0AFB800BFD138001A70B54A1E17
:1039A000682555430E4605F1740100F04DF90446B3
:1039B00040B10021C0E900160C30A06005F168029A
:1039C00000F0EBF8204670BD014800F0D6B800BF0B
:1039D000A0220010014800F0D1B800BFA0220010C2
:1039E000014800F0CAB800BF9B220010014800F057
:1039F000C5B800BF9B22001010B50446FFF7F0FFCA
:103A0000A3691BB1BDE81040FFF7F0BFC4E9123352
:103A10002365134B134A1B68A262A34204BF012310
:103A2000A361204600F020F86060204600F01CF8FA
:103A3000A060204600F018F80022E06004216068D1
:103A4000FFF782FF01220921A068FFF77DFF022214
:103A50001221E068FFF778FF0123A361D2E700BFDE
:103A6000904B001A9139001AF8B50746FFF7ACFFE2
:103A70001E4B1E68B36913B93046FFF7BDFF4836C9
:103A8000D6E90134013B03D533680BB33668F7E759
:103A9000B4F90C50D5B9164BE36004F158006566D3
:103AA00000F06AF8FFF796FF2560C4E90155C4E904
:103AB0000455A5610822294604F15C0000F06DF868
:103AC000C4E90D55C4E912552046F8BD6834D9E75C
:103AD00004213846FFF762FF044630600028D5D144
:103AE000FFF778FF0C233B60EEE700BF904B001A16
:103AF0000100FFFF2DE9F8438046894600F14804A4
:103B0000002614B93046BDE8F883D4E90175013FB9
:103B100001D52468F5E7AB89012B07D9B5F90E303B
:103B2000013303D029464046C84706436835EEE7CF
:103B300070B50D4D0D4C641BA4100026A64209D192
:103B40000B4D0C4CFCF755FD641BA4100026A6423F
:103B500005D170BD55F8043B98470136EEE755F89E
:103B6000043B98470136F2E7C84B001AC84B001ACD
:103B7000C84B001ACC4B001A7047704770470A4474
:103B8000914200F1FF3300D1704710B511F8014B9D
:103B900003F8014F9142F9D110BD0244034693420C
:103BA00000D1704703F8011BF9E7FFFF38B5054660
:103BB000002945D051F8043C0C1F002BB8BFE41875
:103BC00000F0BEFD1F4A1368104633B963601460ED
:103BD0002846BDE8384000F0B9BDA3420CD92168A1
:103BE0006218934204BF1A685B68636004BF52188E
:103BF00022600460ECE713465A680AB1A242FAD97F
:103C000019685818A0420BD1206801445818824204
:103C10001960DDD1106852685A6001441960D7E715
:103C200002D90C232B60D3E7206821188A4204BFF5
:103C300011685268626004BF091821605C60C7E7C0
:103C400038BD00BF34220010F8B5CD1C25F00305A7
:103C500008350C2D38BF0C25002D064601DBA94286
:103C600003D90C2333600020F8BD00F069FD214921
:103C70000A6814469CB9204F3B6823B92146304658
:103C8000FCF70CFD386029463046FCF707FD431C65
:103C900023D10C233360304600F058FDE3E723685E
:103CA0005B1B17D40B2B03D923601C44256004E055
:103CB0006368A2420CBF0B605360304600F046FDC3
:103CC00004F10B00231D20F00700C21ACCD01B1AF0
:103CD000A350C9E722466468CCE7C41C24F003045F
:103CE000A042E3D0211A3046FCF7D8FC0130DDD1E8
:103CF000CFE700BF34220010382200109368013B48
:103D0000002B10B4936008DA9469A34201DB0A29FE
:103D100003D15DF8044B00F09FBB1368581C106082
:103D2000197008465DF8044B7047F8B506460F4613
:103D30001446D518AC4201D1002007E03A4614F8E9
:103D4000011B3046FFF7DAFF431CF3D1F8BDFFFF3C
:103D50002DE9F04F0D469DB014461E46074618B19A
:103D600083690BB9FFF748FE854B9D421BD17D68E7
:103D70006B6ED90705D4AB899A0502D4A86DFFF7FD
:103D8000FCFEAB891B0701D52B69EBB929463846E8
:103D900000F0B4FBC0B16B6ED8070ED54FF0FF300A
:103DA0001DB0BDE8F08F774B9D4201D1BD68DFE7C4
:103DB000754B9D4208BFFD68DAE7AB899905EDD4E4
:103DC000A86DFFF7DBFEE9E70023099320238DF8B8
:103DD0002930DFF8B891039630238DF82A304FF060
:103DE000010A23461E4613F8012B0AB1252AF9D1F0
:103DF000B6EB040B0BD05B46224629463846FFF74C
:103E000094FF013000F0A380099B5B440993337851
:103E1000002B00F09C8000234FF0FF32CDE90523FA
:103E20000136049307938DF853301A9334460522D4
:103E300014F8011B554800F033FC049BC0B9DA06A6
:103E400044BF20228DF85320180744BF2B228DF841
:103E5000532032782A2A13D0079A344600200A26A3
:103E6000214611F8013B303B092B4BD970B914E0C6
:103E7000A0EB09000AFA00F0184304902646D5E7A3
:103E8000039A111D12680391002A01DB079204E0D6
:103E9000524243F002030792049323782E2B0CD155
:103EA00063782A2B33D1039B1A1D1B680392002BC6
:103EB000B8BF4FF0FF3302340593354E217803220B
:103EC000304600F0EDFB38B14023801B03FA00F0D0
:103ED000049B03430134049314F8011B2D488DF80F
:103EE0002810062200F0DCFB00283FD02A4B13BB31
:103EF000039B073323F0070308330393099B4344D1
:103F000009936EE706FB023201200C46A8E7002366
:103F10000134059319460A26204610F8012B303A41
:103F2000092A03D9002BC8D00591C6E706FB012159
:103F300001230446F0E703AB00932A46174B04A97C
:103F40003846AFF30080B0F1FF3F8046D6D16B6EAC
:103F5000D90705D4AB899A0502D4A86DFFF70EFEE8
:103F6000AB895B063FF51AAF099819E703AB0093DD
:103F70002A460A4B04A9384600F088F8E3E700BF58
:103F8000504B001A704B001A304B001A944B001A19
:103F90009A4B001A9E4B001A000000002B3D001A9D
:103FA0002DE9F04791461F468A680B69DDF82080AD
:103FB0009342B8BF1346C9F8003091F84320064633
:103FC0000C4612B10133C9F800302368990642BF8C
:103FD000D9F800300233C9F80030256815F006051D
:103FE00007D104F1190AE368D9F800209B1AAB4203
:103FF00028DC94F843302268003318BF012392066E
:104000002DD404F1430239463046C047013020D058
:104010002368E568D9F8002003F00603042B08BFE5
:10402000AD1AA36822690CBF25EAE5750025934205
:10403000C4BF9B1AED184FF000091A344D451AD130
:10404000002008E00123524639463046C04701307F
:1040500003D14FF0FF30BDE8F0870135C3E7E11829
:104060005A1C302081F84300224494F8451082F80D
:1040700043100233C5E70123224639463046C04784
:104080000130E6D009F10109D8E7FFFF2DE9F0433F
:1040900006460C4601F14300097E85B06E2998461C
:1040A00017460C9B00F0BA8024D8632939D00AD86F
:1040B000002900F0C380582900F0918004F14205E6
:1040C00084F8421035E0642901D06929F6D12568C9
:1040D0001A6815F0800F02F104012CD012681960E3
:1040E000002A03DA2D23524284F84330DFF8BCC1A2
:1040F0000A233FE0732900F0A58008D86F2921D05A
:104100007029DBD1226842F02002226003E0752989
:1041100018D07829D2D1782284F84520DFF890C1D0
:1041200061E01A68111D1960136884F8423004F1C7
:104130004205012393E01268196015F0400F18BF83
:1041400012B2CDE7D4F800C01A681CF0800F02F15B
:1041500004051D6001D0126803E01CF0400FFAD086
:104160001288DFF848C16F290CBF08230A230021F9
:1041700084F843106568A560002DA2BF216821F076
:10418000040121600AB9002D46D00546B2FBF3F1C7
:1041900003FB112E93421CF80EE005F801ED39D90E
:1041A000082B0BD12368DA0708D5236962689A4285
:1041B000DEBF302305F8013C05F1FF35401B2061CF
:1041C000CDF800803B4603AA21463046FFF7E8FEC3
:1041D000013049D14FF0FF3005B0BDE8F083DFF882
:1041E000CCC084F845101D68216855F8042B1D606B
:1041F0000D060BD5CD0744BF41F0200121601AB94F
:10420000236823F0200323601023B0E74B0648BF48
:1042100092B2EFE70A46B9E70546C1E71A68D4F853
:1042200000C06169151D1D601CF0800F136801D06E
:10423000196003E01CF0400FFAD0198000232361BD
:104240000546BDE71A68111D1960156862680021EE
:10425000284600F025FA08B1401B606063682361BE
:10426000002384F84330ABE723692A4639463046B9
:10427000C0470130AED023689B0713D4E068039B8E
:104280009842B8BF1846A7E701234A463946304648
:10429000C04701309ED00135E368039A9B1AAB42B8
:1042A000F2DCEBE7002504F11909F5E7A54B001A4C
:1042B000B64B001A0FB40A4B13B51C6824B1A3699E
:1042C00013B92046FFF798FB05AB049AA168019348
:1042D0002046FFF73DFD02B0BDE8104004B0704736
:1042E0004000001070B50E46054618B183690BB941
:1042F000FFF782FBAB69AC6813B92846FFF77CFB7C
:104300002C4B9C4220D16C68636EDB0705D4A389DB
:10431000980502D4A06DFFF730FCA38919071DD5BD
:104320002369DBB1013EA36816F8011F013BA360BE
:1043300039BB002B38DA22460A21284600F08CF8D7
:10434000013011D00A2511E01B4B9C4201D1AC6811
:10435000DAE71A4B9C4208BFEC68D5E721462846AD
:1043600000F0CCF80028DDD04FF0FF35636EDA079F
:1043700005D4A3899B0502D4A06DFFF7FFFB284657
:1043800070BD002B04DAA2699A4206DC0A2904D027
:1043900023685A1C22601970C5E72246284600F09F
:1043A0005BF80130BFD1DFE723680A255A1C226081
:1043B0001D70DBE7504B001A704B001A304B001A8F
:1043C000024B01461868FFF78DBF00BF4000001088
:1043D00010B50C46B1F90E10FCF724F90028ABBF5C
:1043E000636DA3891B1823F48053ACBF6365A3815D
:1043F00010BD2DE9F0411F468B89DB0505460C46B3
:10440000164605D502230022B1F90E10FCF705F976
:10441000A389B4F90E1023F48053A38132463B469E
:104420002846BDE8F041FCF724B910B50C46B1F9B7
:104430000E10FCF7F2F8431CA38915BF606523F446
:10444000805343F48053A38118BFA38110BDB1F9F9
:104450000E10FCF7CFB8FFFFF8B50E461446054620
:1044600018B183690BB9FFF7C7FA214B9C422BD1D6
:104470006C68A369A360A3891A072FD523696BB35E
:1044800023692068C01A6369F6B28342374604DCA8
:1044900021462846FFF71CFA30BBA368013BA36006
:1044A00023685A1C22601E7063690130834204D065
:1044B000A389DB0706D50A2E04D121462846FFF73B
:1044C00007FA88B93846F8BD0A4B9C4201D1AC685E
:1044D000CFE7094B9C4208BFEC68CAE72146284653
:1044E00000F00CF80028CBD04FF0FF37EAE700BF10
:1044F000504B001A704B001A304B001A324B70B5FB
:104500001D6806460C4625B1AB6913B92846FFF76E
:1045100073FA2E4B9C420FD16C68B4F90C309AB2EE
:1045200015072CD4D00611D40922326043F0400381
:10453000A3814FF0FF303EE0254B9C4201D1AC6897
:10454000EBE7244B9C4208BFEC68E6E7510712D525
:10455000616B41B104F14403994202D03046FFF748
:1045600025FB00236363A38923F02403A381002395
:10457000636023692360A38943F00803A38123694F
:104580004BB9A38903F42073B3F5007F03D0214610
:10459000304600F045F8A28912F001030CD0002348
:1045A000A36063695B42A361236953B9B4F90C301A
:1045B00013F08000BAD170BD920758BF6369A36041
:1045C000F2E70020F7E700BF40000010504B001A50
:1045D000704B001A304B001A70B50E46B1F90E1030
:1045E000002996B014461D4607DA00232B60B389D4
:1045F0001A0610D44FF480630EE06A46FBF7FFFF03
:104600000028F2DB019A02F47042A2F500535A42EC
:104610005A412A60EEE740230020236016B070BDA7
:104620008B8973B59D0706460C4607D504F14703F1
:10463000236023610123636102B070BD01AB6A4650
:10464000FFF7CAFF009905463046FFF7FDFA48B963
:10465000B4F90C309A05EFD423F0030343F00203BE
:10466000A381E3E70D4BB362A389206043F080038D
:10467000A381009B6361019B20615BB1B4F90E10C3
:104680003046FBF7C1FF28B1A38923F0030343F0B1
:104690000103A381A3891D43A581CDE79139001AA8
:1046A00001F0FF01102A2BDB10F0070F08D010F8E3
:1046B000013B013A8B422DD010F0070F42B3F6D1E7
:1046C000F0B441EA012141EA014122F007047FF000
:1046D00000070023F0E80256083C85EA010586EA57
:1046E000010685FA47F5A3FA87F586FA47F6A5FA93
:1046F00087F68EB9EED1F0BC01F0FF0102F007029F
:1047000032B110F8013B013A83EA010313B1F8D149
:104710000020704701387047002D06BF354603382A
:10472000073815F0010F07D1013015F4807F02BF63
:10473000013015F4C03F0130F0BC0138704700BFB4
:104740000148FFF71ABA00BF9C2200100148FFF78A
:1047500015BA00BF9C220010456A657263696369DF
:104760006F20435F312E0D0074617265615F6C656F
:104770006400000074617265615F7465636C610060
:104780004572726F7220616C206372656172206C79
:104790006173207461726561732E0D004572726FD2
:1047A0007220616C206372656172206C6F7320737C
:1047B000656D61666F726F732E0D00FF4170706CD6
:1047C00069636174696F6E204D616C6C6F63204624
:1047D00061696C656420486F6F6B210D00000000FB
:1047E0006C6962732F6672656572746F732F736F75
:1047F000757263652F686F6F6B732E6300FFFFFF29
:104800000D0A4170706C69636174696F6E20537436
:1048100061636B204F766572666C6F772121206F24
:104820006E205461736B3A2025730D0A00FFFFFF61
:104830000D0A7641737365727443616C6C6564280C
:10484000290D0A2020204C4C696E65204E756D6242
:104850006572203D2025640D0A20202046696C6584
:10486000204E616D65203D2025730D0A0D0A00FF65
:1048700049444C4500FFFFFF546D725100FFFFFF9C
:10488000546D72205376630000000000000400089D
:1048900000090109050005010502000E010B010CCC
:1048A000030003030304050F0510030503060307B4
:1048B0000208FFFF001BB700010F010102004400C6
:1048C0000201440002024400020A4000020B4000C0
:1048D000020C400001005000010150000102500094
:1048E0000106500006015000060450000605500065
:1048F000060754000608540006095000060A500036
:10490000060B5000060C50000F04F0000103D50008
:104910000104D500070116000702560002035200E9
:10492000020452000905520009065700060257000A
:10493000C201A2018201620181008200A100A200E5
:1049400001020408030F0F0FFF0000000000050024
:104950000A0020002400090040004000050060001B
:10496000A6000400C000C3000200E000E000010057
:104970000001000103002001200106004001400168
:104980000C00420142011900620162011300820120
:1049900082011200A201A2011100C201C201100095
:1049A000E201E2010F00020202020E0022022202D4
:1049B0000D00230223021C0000010100090901006F
:1049C0000A090100010701010209010006090100AD
:1049D0000C0901010D0901000E0901000F09010078
:1049E0001009010011090100120901001309010059
:1049F00014110100191101001A1101001B1101000D
:104A000000100840060402060502180000100840C5
:104A100009050709060718000020084000000000EB
:104A20000000190000100C400701060702061A00DA
:104A300000100C40010F010110011A0000200C4071
:104A40000203020204021B00040100020107050028
:104A5000030D010500010804020002020403000224
:104A6000030400000200070400030C03020405090C
:104A700003010405080203040503020404050406F7
:104A80000C000208060B00030706090003050607D1
:104A900004050F06040003030404000204040500D7
:104AA00002050406000206040804050C040A0405B5
:104AB0000E010300000A011400000F011200000D96
:104AC000011100000C0110000003070700030F0094
:104AD000010000010000000000060A0003060608AD
:104AE0000405100605000304060100030004090480
:104AF000050D010400000B010F0000020100000081
:104B0000040101000008010200000901060001097A
:104B1000020004050002010405010202040502026C
:104B20000A00000E020B00010B020C00010CFFFF3B
:104B30000000000000000000000000000000000075
:104B40000000000000000000000000000000000065
:104B50000000000000000000000000000000000055
:104B60000000000000000000000000000000000045
:104B70000000000000000000000000000000000035
:104B80000000000000000000000000000000000025
:104B900044000010232D302B2000686C4C0065660B
:104BA000674546470030313233343536373839417E
:104BB0004243444546003031323334353637383994
:084BC00061626364656600FF99
:044BC8005B25001A4F
:084BCC0024E9FF7F0100000055
:104BD400AAAAAAAA00100A40220000001526001A58
:104BE40000000000000000000000000000000000C1
:104BF40000000E40010000001526001A000000000D
:104C040000000000000000000000000000CB280CA1
:104C14004400001000000000504B001A704B001AB2
:104C2400304B001A000000000000000000000000EB
:104C34000000000000000000000000000000000070
:104C44000000000000000000000000000000000060
:104C54000000000000000000000000000000000050
:104C64000000000000000000000000000000000040
:044C7400000000003C
:040000051A0005696F
:00000001FF
